{
  "_format": "hh-sol-artifact-1",
  "contractName": "DCast",
  "sourceName": "contracts/DCast.sol",
  "abi": [
    {
      "inputs": [],
      "stateMutability": "nonpayable",
      "type": "constructor"
    },
    {
      "anonymous": false,
      "inputs": [
        {
          "indexed": false,
          "internalType": "address",
          "name": "adminAddress",
          "type": "address"
        }
      ],
      "name": "AdminAdded",
      "type": "event"
    },
    {
      "anonymous": false,
      "inputs": [
        {
          "indexed": false,
          "internalType": "uint256",
          "name": "votingSessionID",
          "type": "uint256"
        },
        {
          "indexed": false,
          "internalType": "uint256",
          "name": "candidateID",
          "type": "uint256"
        },
        {
          "indexed": false,
          "internalType": "string",
          "name": "candidateName",
          "type": "string"
        },
        {
          "indexed": false,
          "internalType": "string",
          "name": "description",
          "type": "string"
        },
        {
          "indexed": false,
          "internalType": "string",
          "name": "candidateImageIPFS_URL",
          "type": "string"
        }
      ],
      "name": "CandidateRegistered",
      "type": "event"
    },
    {
      "anonymous": false,
      "inputs": [
        {
          "indexed": false,
          "internalType": "uint256",
          "name": "votingSessionID",
          "type": "uint256"
        },
        {
          "indexed": false,
          "internalType": "uint256",
          "name": "voterID",
          "type": "uint256"
        },
        {
          "indexed": false,
          "internalType": "uint256",
          "name": "votedCandidateID",
          "type": "uint256"
        },
        {
          "indexed": false,
          "internalType": "uint256",
          "name": "votedCandidateVoteCount",
          "type": "uint256"
        }
      ],
      "name": "VoteCasted",
      "type": "event"
    },
    {
      "anonymous": false,
      "inputs": [
        {
          "indexed": false,
          "internalType": "uint256",
          "name": "voterID",
          "type": "uint256"
        },
        {
          "indexed": false,
          "internalType": "address",
          "name": "voterAddress",
          "type": "address"
        }
      ],
      "name": "VoterAdded",
      "type": "event"
    },
    {
      "anonymous": false,
      "inputs": [
        {
          "indexed": false,
          "internalType": "uint256",
          "name": "votingSessionID",
          "type": "uint256"
        },
        {
          "indexed": false,
          "internalType": "uint256",
          "name": "voterID",
          "type": "uint256"
        },
        {
          "indexed": false,
          "internalType": "uint8",
          "name": "votingWeight",
          "type": "uint8"
        }
      ],
      "name": "VoterRegistered",
      "type": "event"
    },
    {
      "anonymous": false,
      "inputs": [
        {
          "indexed": false,
          "internalType": "uint256",
          "name": "votingSessionID",
          "type": "uint256"
        },
        {
          "indexed": false,
          "internalType": "string",
          "name": "votingSessionName",
          "type": "string"
        },
        {
          "indexed": false,
          "internalType": "enum DCast.VotingPhase",
          "name": "phase",
          "type": "uint8"
        },
        {
          "indexed": false,
          "internalType": "uint256",
          "name": "registrationTime",
          "type": "uint256"
        }
      ],
      "name": "VotingSessionAdded",
      "type": "event"
    },
    {
      "anonymous": false,
      "inputs": [
        {
          "indexed": false,
          "internalType": "uint256",
          "name": "votingSessionID",
          "type": "uint256"
        },
        {
          "indexed": false,
          "internalType": "enum DCast.VotingPhase",
          "name": "phase",
          "type": "uint8"
        },
        {
          "indexed": false,
          "internalType": "uint256",
          "name": "time",
          "type": "uint256"
        }
      ],
      "name": "VotingSessionPhaseUpdated",
      "type": "event"
    },
    {
      "inputs": [
        {
          "internalType": "address",
          "name": "_adminAddress",
          "type": "address"
        }
      ],
      "name": "addAdmin",
      "outputs": [],
      "stateMutability": "nonpayable",
      "type": "function"
    },
    {
      "inputs": [
        {
          "internalType": "address",
          "name": "_voterAddress",
          "type": "address"
        }
      ],
      "name": "addVoter",
      "outputs": [],
      "stateMutability": "nonpayable",
      "type": "function"
    },
    {
      "inputs": [
        {
          "internalType": "string",
          "name": "_votingSessionName",
          "type": "string"
        }
      ],
      "name": "addVotingSession",
      "outputs": [],
      "stateMutability": "nonpayable",
      "type": "function"
    },
    {
      "inputs": [
        {
          "internalType": "uint256",
          "name": "",
          "type": "uint256"
        }
      ],
      "name": "adminAddresses",
      "outputs": [
        {
          "internalType": "address",
          "name": "",
          "type": "address"
        }
      ],
      "stateMutability": "view",
      "type": "function"
    },
    {
      "inputs": [
        {
          "internalType": "address",
          "name": "",
          "type": "address"
        }
      ],
      "name": "admins",
      "outputs": [
        {
          "internalType": "bool",
          "name": "",
          "type": "bool"
        }
      ],
      "stateMutability": "view",
      "type": "function"
    },
    {
      "inputs": [
        {
          "internalType": "uint256",
          "name": "_votingSessionID",
          "type": "uint256"
        },
        {
          "internalType": "uint256",
          "name": "_voterID",
          "type": "uint256"
        },
        {
          "internalType": "uint256",
          "name": "_candidateID",
          "type": "uint256"
        }
      ],
      "name": "castVote",
      "outputs": [],
      "stateMutability": "nonpayable",
      "type": "function"
    },
    {
      "inputs": [
        {
          "internalType": "address",
          "name": "_accountAddress",
          "type": "address"
        }
      ],
      "name": "checkAccountType",
      "outputs": [
        {
          "internalType": "string",
          "name": "",
          "type": "string"
        }
      ],
      "stateMutability": "view",
      "type": "function"
    },
    {
      "inputs": [],
      "name": "contractOwner",
      "outputs": [
        {
          "internalType": "address",
          "name": "",
          "type": "address"
        }
      ],
      "stateMutability": "view",
      "type": "function"
    },
    {
      "inputs": [],
      "name": "getAdminAddresses",
      "outputs": [
        {
          "internalType": "address[]",
          "name": "",
          "type": "address[]"
        }
      ],
      "stateMutability": "view",
      "type": "function"
    },
    {
      "inputs": [],
      "name": "getContractOwnerAddress",
      "outputs": [
        {
          "internalType": "address",
          "name": "",
          "type": "address"
        }
      ],
      "stateMutability": "view",
      "type": "function"
    },
    {
      "inputs": [],
      "name": "getVoterAddresses",
      "outputs": [
        {
          "internalType": "address[]",
          "name": "",
          "type": "address[]"
        }
      ],
      "stateMutability": "view",
      "type": "function"
    },
    {
      "inputs": [],
      "name": "getVoterCount",
      "outputs": [
        {
          "internalType": "uint256",
          "name": "",
          "type": "uint256"
        }
      ],
      "stateMutability": "view",
      "type": "function"
    },
    {
      "inputs": [
        {
          "internalType": "address",
          "name": "_voterAddress",
          "type": "address"
        }
      ],
      "name": "getVoterDetails",
      "outputs": [
        {
          "internalType": "uint256",
          "name": "",
          "type": "uint256"
        },
        {
          "internalType": "address",
          "name": "",
          "type": "address"
        },
        {
          "internalType": "uint256[]",
          "name": "",
          "type": "uint256[]"
        }
      ],
      "stateMutability": "view",
      "type": "function"
    },
    {
      "inputs": [
        {
          "internalType": "address",
          "name": "_voterAddress",
          "type": "address"
        },
        {
          "internalType": "uint256",
          "name": "_votingSessionID",
          "type": "uint256"
        }
      ],
      "name": "getVoterVotingSessionDetails",
      "outputs": [
        {
          "internalType": "uint8",
          "name": "",
          "type": "uint8"
        },
        {
          "internalType": "uint256",
          "name": "",
          "type": "uint256"
        }
      ],
      "stateMutability": "view",
      "type": "function"
    },
    {
      "inputs": [
        {
          "internalType": "uint256",
          "name": "_votingSessionID",
          "type": "uint256"
        }
      ],
      "name": "getVotingSessionCandidateCount",
      "outputs": [
        {
          "internalType": "uint256",
          "name": "",
          "type": "uint256"
        }
      ],
      "stateMutability": "view",
      "type": "function"
    },
    {
      "inputs": [
        {
          "internalType": "uint256",
          "name": "_votingSessionID",
          "type": "uint256"
        },
        {
          "internalType": "uint256",
          "name": "_candidateID",
          "type": "uint256"
        }
      ],
      "name": "getVotingSessionCandidateDetails",
      "outputs": [
        {
          "internalType": "uint256",
          "name": "",
          "type": "uint256"
        },
        {
          "internalType": "string",
          "name": "",
          "type": "string"
        },
        {
          "internalType": "string",
          "name": "",
          "type": "string"
        },
        {
          "internalType": "string",
          "name": "",
          "type": "string"
        },
        {
          "internalType": "uint256",
          "name": "",
          "type": "uint256"
        }
      ],
      "stateMutability": "view",
      "type": "function"
    },
    {
      "inputs": [],
      "name": "getVotingSessionCount",
      "outputs": [
        {
          "internalType": "uint256",
          "name": "",
          "type": "uint256"
        }
      ],
      "stateMutability": "view",
      "type": "function"
    },
    {
      "inputs": [
        {
          "internalType": "uint256",
          "name": "_votingSessionID",
          "type": "uint256"
        }
      ],
      "name": "getVotingSessionDetails",
      "outputs": [
        {
          "internalType": "uint256",
          "name": "",
          "type": "uint256"
        },
        {
          "internalType": "string",
          "name": "",
          "type": "string"
        },
        {
          "internalType": "enum DCast.VotingPhase",
          "name": "",
          "type": "uint8"
        },
        {
          "internalType": "uint256",
          "name": "",
          "type": "uint256"
        },
        {
          "internalType": "uint256",
          "name": "",
          "type": "uint256"
        },
        {
          "internalType": "uint256",
          "name": "",
          "type": "uint256"
        }
      ],
      "stateMutability": "view",
      "type": "function"
    },
    {
      "inputs": [
        {
          "internalType": "uint256",
          "name": "_votingSessionID",
          "type": "uint256"
        }
      ],
      "name": "getVotingSessionRegisteredVoterIDs",
      "outputs": [
        {
          "internalType": "uint256[]",
          "name": "",
          "type": "uint256[]"
        }
      ],
      "stateMutability": "view",
      "type": "function"
    },
    {
      "inputs": [
        {
          "internalType": "uint256",
          "name": "_votingSessionID",
          "type": "uint256"
        }
      ],
      "name": "getVotingSessionWinnerCandidateIDs",
      "outputs": [
        {
          "internalType": "uint256[]",
          "name": "",
          "type": "uint256[]"
        }
      ],
      "stateMutability": "view",
      "type": "function"
    },
    {
      "inputs": [
        {
          "internalType": "uint256",
          "name": "_votingSessionID",
          "type": "uint256"
        },
        {
          "internalType": "string",
          "name": "_candidateName",
          "type": "string"
        },
        {
          "internalType": "string",
          "name": "_description",
          "type": "string"
        },
        {
          "internalType": "string",
          "name": "_candidateImageIPFS_URL",
          "type": "string"
        }
      ],
      "name": "registerCandidate",
      "outputs": [],
      "stateMutability": "nonpayable",
      "type": "function"
    },
    {
      "inputs": [
        {
          "internalType": "uint256",
          "name": "_votingSessionID",
          "type": "uint256"
        },
        {
          "internalType": "uint256",
          "name": "_voterID",
          "type": "uint256"
        },
        {
          "internalType": "uint8",
          "name": "_votingWeight",
          "type": "uint8"
        }
      ],
      "name": "registerVoter",
      "outputs": [],
      "stateMutability": "nonpayable",
      "type": "function"
    },
    {
      "inputs": [
        {
          "internalType": "uint256",
          "name": "_votingSessionID",
          "type": "uint256"
        }
      ],
      "name": "updateVotingSessionPhase",
      "outputs": [],
      "stateMutability": "nonpayable",
      "type": "function"
    },
    {
      "inputs": [
        {
          "internalType": "uint256",
          "name": "",
          "type": "uint256"
        }
      ],
      "name": "voterAddresses",
      "outputs": [
        {
          "internalType": "address",
          "name": "",
          "type": "address"
        }
      ],
      "stateMutability": "view",
      "type": "function"
    },
    {
      "inputs": [
        {
          "internalType": "address",
          "name": "",
          "type": "address"
        }
      ],
      "name": "voters",
      "outputs": [
        {
          "internalType": "uint256",
          "name": "voterID",
          "type": "uint256"
        },
        {
          "internalType": "address",
          "name": "voterAddress",
          "type": "address"
        }
      ],
      "stateMutability": "view",
      "type": "function"
    },
    {
      "inputs": [],
      "name": "votingSessionCount",
      "outputs": [
        {
          "internalType": "uint256",
          "name": "_value",
          "type": "uint256"
        }
      ],
      "stateMutability": "view",
      "type": "function"
    }
  ],
  "bytecode": "0x60806040523480156200001157600080fd5b5033600460006101000a81548173ffffffffffffffffffffffffffffffffffffffff021916908373ffffffffffffffffffffffffffffffffffffffff16021790555062000086600460009054906101000a900473ffffffffffffffffffffffffffffffffffffffff166200008c60201b60201c565b62000454565b600460009054906101000a900473ffffffffffffffffffffffffffffffffffffffff1673ffffffffffffffffffffffffffffffffffffffff163373ffffffffffffffffffffffffffffffffffffffff161480620001325750600660003373ffffffffffffffffffffffffffffffffffffffff1673ffffffffffffffffffffffffffffffffffffffff16815260200190815260200160002060009054906101000a900460ff165b62000174576040517f08c379a00000000000000000000000000000000000000000000000000000000081526004016200016b906200035e565b60405180910390fd5b80600660008273ffffffffffffffffffffffffffffffffffffffff1673ffffffffffffffffffffffffffffffffffffffff16815260200190815260200160002060009054906101000a900460ff161562000205576040517f08c379a0000000000000000000000000000000000000000000000000000000008152600401620001fc90620003d0565b60405180910390fd5b6005829080600181540180825580915050600190039060005260206000200160009091909190916101000a81548173ffffffffffffffffffffffffffffffffffffffff021916908373ffffffffffffffffffffffffffffffffffffffff1602179055506001600660008473ffffffffffffffffffffffffffffffffffffffff1673ffffffffffffffffffffffffffffffffffffffff16815260200190815260200160002060006101000a81548160ff0219169083151502179055507f44d6d25963f097ad14f29f06854a01f575648a1ef82f30e562ccd3889717e33982604051620002f1919062000437565b60405180910390a15050565b600082825260208201905092915050565b7f43616c6c6572206973206e6f7420616e2061646d696e00000000000000000000600082015250565b600062000346601683620002fd565b915062000353826200030e565b602082019050919050565b60006020820190508181036000830152620003798162000337565b9050919050565b7f41646d696e20616c726561647920657869737473000000000000000000000000600082015250565b6000620003b8601483620002fd565b9150620003c58262000380565b602082019050919050565b60006020820190508181036000830152620003eb81620003a9565b9050919050565b600073ffffffffffffffffffffffffffffffffffffffff82169050919050565b60006200041f82620003f2565b9050919050565b620004318162000412565b82525050565b60006020820190506200044e600083018462000426565b92915050565b614a5280620004646000396000f3fe608060405234801561001057600080fd5b506004361061018e5760003560e01c80639fc42460116100de578063be13614011610097578063dd0e237311610071578063dd0e2373146104f0578063e0e7127a14610520578063f4ab9adf1461053e578063fb7a45721461055a5761018e565b8063be13614014610472578063ce606ee0146104a2578063d6640df7146104c05761018e565b80639fc4246014610387578063a3ec138d146103a3578063ad19cbc1146103d4578063b6c5947e146103f2578063ba44eecf14610410578063ba71bef0146104405761018e565b80635be5e3ec1161014b578063704802751161012557806370480275146102da578063807884d6146102f657806383c495da146103275780638b50c9d9146103575761018e565b80635be5e3ec1461028457806364ddfa29146102a05780636d611b77146102be5761018e565b80630a16e30b146101935780630cab32b6146101b157806311174a29146101e557806318118402146102035780633d1b5eae14610238578063429b62e514610254575b600080fd5b61019b610576565b6040516101a891906133fd565b60405180910390f35b6101cb60048036038101906101c69190613469565b610604565b6040516101dc959493929190613548565b60405180910390f35b6101ed6108af565b6040516101fa91906135b0565b60405180910390f35b61021d600480360381019061021891906135cb565b6108bc565b60405161022f9695949392919061366f565b60405180910390f35b610252600480360381019061024d919061380c565b6109fd565b005b61026e600480360381019061026991906138f3565b610cd7565b60405161027b919061393b565b60405180910390f35b61029e60048036038101906102999190613956565b610cf7565b005b6102a8611273565b6040516102b591906133fd565b60405180910390f35b6102d860048036038101906102d391906139e2565b611301565b005b6102f460048036038101906102ef91906138f3565b611961565b005b610310600480360381019061030b9190613a35565b611bc9565b60405161031e929190613a84565b60405180910390f35b610341600480360381019061033c91906135cb565b611c92565b60405161034e9190613b6b565b60405180910390f35b610371600480360381019061036c91906138f3565b611d03565b60405161037e9190613b8d565b60405180910390f35b6103a1600480360381019061039c9190613baf565b611f36565b005b6103bd60048036038101906103b891906138f3565b6120f8565b6040516103cb929190613c07565b60405180910390f35b6103dc61213c565b6040516103e991906135b0565b60405180910390f35b6103fa61214d565b60405161040791906135b0565b60405180910390f35b61042a600480360381019061042591906135cb565b612159565b6040516104379190613c30565b60405180910390f35b61045a600480360381019061045591906138f3565b612198565b60405161046993929190613c4b565b60405180910390f35b61048c600480360381019061048791906135cb565b6122e4565b6040516104999190613b6b565b60405180910390f35b6104aa612355565b6040516104b79190613c30565b60405180910390f35b6104da60048036038101906104d591906135cb565b61237b565b6040516104e791906135b0565b60405180910390f35b61050a600480360381019061050591906135cb565b6123a5565b6040516105179190613c30565b60405180910390f35b6105286123e4565b6040516105359190613c30565b60405180910390f35b610558600480360381019061055391906138f3565b61240e565b005b610574600480360381019061056f91906135cb565b6127d4565b005b606060028054806020026020016040519081016040528092919081815260200182805480156105fa57602002820191906000526020600020905b8160009054906101000a900473ffffffffffffffffffffffffffffffffffffffff1673ffffffffffffffffffffffffffffffffffffffff16815260200190600101908083116105b0575b5050505050905090565b60006060806060600060016000888152602001908152602001600020600601600401600087815260200190815260200160002060000154600160008981526020019081526020016000206006016004016000888152602001908152602001600020600101600160008a81526020019081526020016000206006016004016000898152602001908152602001600020600201600160008b815260200190815260200160002060060160040160008a81526020019081526020016000206003016106f7600160008d815260200190815260200160002060060160040160008c8152602001908152602001600020600401612abe565b83805461070390613cb8565b80601f016020809104026020016040519081016040528092919081815260200182805461072f90613cb8565b801561077c5780601f106107515761010080835404028352916020019161077c565b820191906000526020600020905b81548152906001019060200180831161075f57829003601f168201915b5050505050935082805461078f90613cb8565b80601f01602080910402602001604051908101604052809291908181526020018280546107bb90613cb8565b80156108085780601f106107dd57610100808354040283529160200191610808565b820191906000526020600020905b8154815290600101906020018083116107eb57829003601f168201915b5050505050925081805461081b90613cb8565b80601f016020809104026020016040519081016040528092919081815260200182805461084790613cb8565b80156108945780601f1061086957610100808354040283529160200191610894565b820191906000526020600020905b81548152906001019060200180831161087757829003601f168201915b50505050509150945094509450945094509295509295909350565b6000600280549050905090565b60006060600080600080600160008881526020019081526020016000206000015460016000898152602001908152602001600020600101600160008a815260200190815260200160002060020160009054906101000a900460ff16600160008b815260200190815260200160002060030154600160008c815260200190815260200160002060040154600160008d81526020019081526020016000206005015484805461096890613cb8565b80601f016020809104026020016040519081016040528092919081815260200182805461099490613cb8565b80156109e15780601f106109b6576101008083540402835291602001916109e1565b820191906000526020600020905b8154815290600101906020018083116109c457829003601f168201915b5050505050945095509550955095509550955091939550919395565b600460009054906101000a900473ffffffffffffffffffffffffffffffffffffffff1673ffffffffffffffffffffffffffffffffffffffff163373ffffffffffffffffffffffffffffffffffffffff161480610aa25750600660003373ffffffffffffffffffffffffffffffffffffffff1673ffffffffffffffffffffffffffffffffffffffff16815260200190815260200160002060009054906101000a900460ff165b610ae1576040517f08c379a0000000000000000000000000000000000000000000000000000000008152600401610ad890613d35565b60405180910390fd5b83806001600083815260200190815260200160002060000154148015610b1e57506000600160008381526020019081526020016000206000015414155b610b5d576040517f08c379a0000000000000000000000000000000000000000000000000000000008152600401610b5490613da1565b60405180910390fd5b8460006002811115610b7257610b716135f8565b5b6001600083815260200190815260200160002060020160009054906101000a900460ff166002811115610ba857610ba76135f8565b5b14610be8576040517f08c379a0000000000000000000000000000000000000000000000000000000008152600401610bdf90613e33565b60405180910390fd5b6000600160008881526020019081526020016000209050610c0e81600601600301612acc565b6000610c1f82600601600301612abe565b90506000826006016004016000838152602001908152602001600020905081816000018190555087816001019081610c579190613fff565b5086816002019081610c699190613fff565b5085816003019081610c7b9190613fff565b507f71b52de267ee67b215667e59f77471dd030da30e9477486800966462c2a2161c83600001548260000154836001018460020185600301604051610cc4959493929190614155565b60405180910390a1505050505050505050565b60066020528060005260406000206000915054906101000a900460ff1681565b82806001600083815260200190815260200160002060000154148015610d3457506000600160008381526020019081526020016000206000015414155b610d73576040517f08c379a0000000000000000000000000000000000000000000000000000000008152600401610d6a90613da1565b60405180910390fd5b8360016002811115610d8857610d876135f8565b5b6001600083815260200190815260200160002060020160009054906101000a900460ff166002811115610dbe57610dbd6135f8565b5b14610dfe576040517f08c379a0000000000000000000000000000000000000000000000000000000008152600401610df59061422f565b60405180910390fd5b843373ffffffffffffffffffffffffffffffffffffffff16600360003373ffffffffffffffffffffffffffffffffffffffff1673ffffffffffffffffffffffffffffffffffffffff16815260200190815260200160002060010160009054906101000a900473ffffffffffffffffffffffffffffffffffffffff1673ffffffffffffffffffffffffffffffffffffffff1614610ecf576040517f08c379a0000000000000000000000000000000000000000000000000000000008152600401610ec69061429b565b60405180910390fd5b60011515600160008381526020019081526020016000206006016001016000600360003373ffffffffffffffffffffffffffffffffffffffff1673ffffffffffffffffffffffffffffffffffffffff16815260200190815260200160002060000154815260200190815260200160002060009054906101000a900460ff16151514610f8f576040517f08c379a0000000000000000000000000000000000000000000000000000000008152600401610f869061432d565b60405180910390fd5b856000600360003373ffffffffffffffffffffffffffffffffffffffff1673ffffffffffffffffffffffffffffffffffffffff16815260200190815260200160002060030160008381526020019081526020016000206001015414611029576040517f08c379a0000000000000000000000000000000000000000000000000000000008152600401611020906143bf565b60405180910390fd5b868580600160008481526020019081526020016000206006016004016000838152602001908152602001600020600001541461109a576040517f08c379a00000000000000000000000000000000000000000000000000000000081526004016110919061442b565b60405180910390fd5b6000600160008b815260200190815260200160002090506000600260018b6110c2919061447a565b815481106110d3576110d26144ae565b5b9060005260206000200160009054906101000a900473ffffffffffffffffffffffffffffffffffffffff16905088600360008373ffffffffffffffffffffffffffffffffffffffff1673ffffffffffffffffffffffffffffffffffffffff16815260200190815260200160002060030160008d81526020019081526020016000206001018190555060005b600360008373ffffffffffffffffffffffffffffffffffffffff1673ffffffffffffffffffffffffffffffffffffffff16815260200190815260200160002060030160008d815260200190815260200160002060000160009054906101000a900460ff1660ff16811015611202576111ef8360060160040160008c8152602001908152602001600020600401612acc565b80806111fa906144dd565b91505061115e565b507f1d00f175f966d6ae39caadce46718e13da02231dd6515c39615e4b818bd69b8882600001548b8b61124e8660060160040160008f8152602001908152602001600020600401612abe565b60405161125e9493929190614525565b60405180910390a15050505050505050505050565b606060058054806020026020016040519081016040528092919081815260200182805480156112f757602002820191906000526020600020905b8160009054906101000a900473ffffffffffffffffffffffffffffffffffffffff1673ffffffffffffffffffffffffffffffffffffffff16815260200190600101908083116112ad575b5050505050905090565b600460009054906101000a900473ffffffffffffffffffffffffffffffffffffffff1673ffffffffffffffffffffffffffffffffffffffff163373ffffffffffffffffffffffffffffffffffffffff1614806113a65750600660003373ffffffffffffffffffffffffffffffffffffffff1673ffffffffffffffffffffffffffffffffffffffff16815260200190815260200160002060009054906101000a900460ff165b6113e5576040517f08c379a00000000000000000000000000000000000000000000000000000000081526004016113dc90613d35565b60405180910390fd5b8280600160008381526020019081526020016000206000015414801561142257506000600160008381526020019081526020016000206000015414155b611461576040517f08c379a000000000000000000000000000000000000000000000000000000000815260040161145890613da1565b60405180910390fd5b8280600360006002600185611476919061447a565b81548110611487576114866144ae565b5b9060005260206000200160009054906101000a900473ffffffffffffffffffffffffffffffffffffffff1673ffffffffffffffffffffffffffffffffffffffff1673ffffffffffffffffffffffffffffffffffffffff1681526020019081526020016000206000015414801561158a5750600060036000600260018561150d919061447a565b8154811061151e5761151d6144ae565b5b9060005260206000200160009054906101000a900473ffffffffffffffffffffffffffffffffffffffff1673ffffffffffffffffffffffffffffffffffffffff1673ffffffffffffffffffffffffffffffffffffffff1681526020019081526020016000206000015414155b6115c9576040517f08c379a00000000000000000000000000000000000000000000000000000000081526004016115c0906145b6565b60405180910390fd5b8260008160ff1611611610576040517f08c379a000000000000000000000000000000000000000000000000000000000815260040161160790614648565b60405180910390fd5b858560016000838152602001908152602001600020600601600101600082815260200190815260200160002060009054906101000a900460ff161561168a576040517f08c379a0000000000000000000000000000000000000000000000000000000008152600401611681906146da565b60405180910390fd5b876000600281111561169f5761169e6135f8565b5b6001600083815260200190815260200160002060020160009054906101000a900460ff1660028111156116d5576116d46135f8565b5b14611715576040517f08c379a000000000000000000000000000000000000000000000000000000000815260040161170c90613e33565b60405180910390fd5b6000600160008b815260200190815260200160002090508060060160000189908060018154018082558091505060019003906000526020600020016000909190919091505560018160060160010160008b815260200190815260200160002060006101000a81548160ff0219169083151502179055506000600260018b61179c919061447a565b815481106117ad576117ac6144ae565b5b9060005260206000200160009054906101000a900473ffffffffffffffffffffffffffffffffffffffff169050600360008273ffffffffffffffffffffffffffffffffffffffff1673ffffffffffffffffffffffffffffffffffffffff1681526020019081526020016000206002018b908060018154018082558091505060019003906000526020600020016000909190919091505588600360008373ffffffffffffffffffffffffffffffffffffffff1673ffffffffffffffffffffffffffffffffffffffff16815260200190815260200160002060030160008d815260200190815260200160002060000160006101000a81548160ff021916908360ff1602179055507fcde045a1fbcc6cdd390196d6014b3603de441c34590402c16acec89cfc50eea282600001548b600360008573ffffffffffffffffffffffffffffffffffffffff1673ffffffffffffffffffffffffffffffffffffffff16815260200190815260200160002060030160008f815260200190815260200160002060000160009054906101000a900460ff1660405161194c939291906146fa565b60405180910390a15050505050505050505050565b600460009054906101000a900473ffffffffffffffffffffffffffffffffffffffff1673ffffffffffffffffffffffffffffffffffffffff163373ffffffffffffffffffffffffffffffffffffffff161480611a065750600660003373ffffffffffffffffffffffffffffffffffffffff1673ffffffffffffffffffffffffffffffffffffffff16815260200190815260200160002060009054906101000a900460ff165b611a45576040517f08c379a0000000000000000000000000000000000000000000000000000000008152600401611a3c90613d35565b60405180910390fd5b80600660008273ffffffffffffffffffffffffffffffffffffffff1673ffffffffffffffffffffffffffffffffffffffff16815260200190815260200160002060009054906101000a900460ff1615611ad3576040517f08c379a0000000000000000000000000000000000000000000000000000000008152600401611aca9061477d565b60405180910390fd5b6005829080600181540180825580915050600190039060005260206000200160009091909190916101000a81548173ffffffffffffffffffffffffffffffffffffffff021916908373ffffffffffffffffffffffffffffffffffffffff1602179055506001600660008473ffffffffffffffffffffffffffffffffffffffff1673ffffffffffffffffffffffffffffffffffffffff16815260200190815260200160002060006101000a81548160ff0219169083151502179055507f44d6d25963f097ad14f29f06854a01f575648a1ef82f30e562ccd3889717e33982604051611bbd9190613c30565b60405180910390a15050565b600080600360008573ffffffffffffffffffffffffffffffffffffffff1673ffffffffffffffffffffffffffffffffffffffff168152602001908152602001600020600301600084815260200190815260200160002060000160009054906101000a900460ff16600360008673ffffffffffffffffffffffffffffffffffffffff1673ffffffffffffffffffffffffffffffffffffffff168152602001908152602001600020600301600085815260200190815260200160002060010154915091509250929050565b606060016000838152602001908152602001600020600601600201805480602002602001604051908101604052809291908181526020018280548015611cf757602002820191906000526020600020905b815481526020019060010190808311611ce3575b50505050509050919050565b6060600460009054906101000a900473ffffffffffffffffffffffffffffffffffffffff1673ffffffffffffffffffffffffffffffffffffffff168273ffffffffffffffffffffffffffffffffffffffff1603611d97576040518060400160405280600581526020017f4f776e65720000000000000000000000000000000000000000000000000000008152509050611f31565b600660008373ffffffffffffffffffffffffffffffffffffffff1673ffffffffffffffffffffffffffffffffffffffff16815260200190815260200160002060009054906101000a900460ff1615611e26576040518060400160405280600581526020017f41646d696e0000000000000000000000000000000000000000000000000000008152509050611f31565b8173ffffffffffffffffffffffffffffffffffffffff16600360008473ffffffffffffffffffffffffffffffffffffffff1673ffffffffffffffffffffffffffffffffffffffff16815260200190815260200160002060010160009054906101000a900473ffffffffffffffffffffffffffffffffffffffff1673ffffffffffffffffffffffffffffffffffffffff1603611ef8576040518060400160405280600581526020017f566f7465720000000000000000000000000000000000000000000000000000008152509050611f31565b6040518060400160405280600581526020017f477565737400000000000000000000000000000000000000000000000000000081525090505b919050565b600460009054906101000a900473ffffffffffffffffffffffffffffffffffffffff1673ffffffffffffffffffffffffffffffffffffffff163373ffffffffffffffffffffffffffffffffffffffff161480611fdb5750600660003373ffffffffffffffffffffffffffffffffffffffff1673ffffffffffffffffffffffffffffffffffffffff16815260200190815260200160002060009054906101000a900460ff165b61201a576040517f08c379a000000000000000000000000000000000000000000000000000000000815260040161201190613d35565b60405180910390fd5b6120246000612acc565b60006120306000612abe565b90506000600160008381526020019081526020016000209050818160000181905550828160010190816120639190613fff565b5060008160020160006101000a81548160ff0219169083600281111561208c5761208b6135f8565b5b02179055504281600301819055507f8a2fe9401f708f991a536bf09dd5e8550057f1a47104fd8efc8c17de1b6cf85a8160000154826001018360020160009054906101000a900460ff1684600301546040516120eb949392919061479d565b60405180910390a1505050565b60036020528060005260406000206000915090508060000154908060010160009054906101000a900473ffffffffffffffffffffffffffffffffffffffff16905082565b60006121486000612abe565b905090565b60008060000154905081565b6005818154811061216957600080fd5b906000526020600020016000915054906101000a900473ffffffffffffffffffffffffffffffffffffffff1681565b6000806060600360008573ffffffffffffffffffffffffffffffffffffffff1673ffffffffffffffffffffffffffffffffffffffff16815260200190815260200160002060000154600360008673ffffffffffffffffffffffffffffffffffffffff1673ffffffffffffffffffffffffffffffffffffffff16815260200190815260200160002060010160009054906101000a900473ffffffffffffffffffffffffffffffffffffffff16600360008773ffffffffffffffffffffffffffffffffffffffff1673ffffffffffffffffffffffffffffffffffffffff168152602001908152602001600020600201808054806020026020016040519081016040528092919081815260200182805480156122d057602002820191906000526020600020905b8154815260200190600101908083116122bc575b505050505090509250925092509193909250565b60606001600083815260200190815260200160002060060160000180548060200260200160405190810160405280929190818152602001828054801561234957602002820191906000526020600020905b815481526020019060010190808311612335575b50505050509050919050565b600460009054906101000a900473ffffffffffffffffffffffffffffffffffffffff1681565b600061239e60016000848152602001908152602001600020600601600301612abe565b9050919050565b600281815481106123b557600080fd5b906000526020600020016000915054906101000a900473ffffffffffffffffffffffffffffffffffffffff1681565b6000600460009054906101000a900473ffffffffffffffffffffffffffffffffffffffff16905090565b600460009054906101000a900473ffffffffffffffffffffffffffffffffffffffff1673ffffffffffffffffffffffffffffffffffffffff163373ffffffffffffffffffffffffffffffffffffffff1614806124b35750600660003373ffffffffffffffffffffffffffffffffffffffff1673ffffffffffffffffffffffffffffffffffffffff16815260200190815260200160002060009054906101000a900460ff165b6124f2576040517f08c379a00000000000000000000000000000000000000000000000000000000081526004016124e990613d35565b60405180910390fd5b808073ffffffffffffffffffffffffffffffffffffffff16600360008373ffffffffffffffffffffffffffffffffffffffff1673ffffffffffffffffffffffffffffffffffffffff16815260200190815260200160002060010160009054906101000a900473ffffffffffffffffffffffffffffffffffffffff1673ffffffffffffffffffffffffffffffffffffffff16036125c3576040517f08c379a00000000000000000000000000000000000000000000000000000000081526004016125ba90614835565b60405180910390fd5b6002829080600181540180825580915050600190039060005260206000200160009091909190916101000a81548173ffffffffffffffffffffffffffffffffffffffff021916908373ffffffffffffffffffffffffffffffffffffffff160217905550600280549050600360008473ffffffffffffffffffffffffffffffffffffffff1673ffffffffffffffffffffffffffffffffffffffff1681526020019081526020016000206000018190555081600360008473ffffffffffffffffffffffffffffffffffffffff1673ffffffffffffffffffffffffffffffffffffffff16815260200190815260200160002060010160006101000a81548173ffffffffffffffffffffffffffffffffffffffff021916908373ffffffffffffffffffffffffffffffffffffffff1602179055507fbe03f66069cbbe16c325546c4cf7a8d334ab3baa0a1e50ad1b5955cf7565f514600360008473ffffffffffffffffffffffffffffffffffffffff1673ffffffffffffffffffffffffffffffffffffffff16815260200190815260200160002060000154600360008573ffffffffffffffffffffffffffffffffffffffff1673ffffffffffffffffffffffffffffffffffffffff16815260200190815260200160002060010160009054906101000a900473ffffffffffffffffffffffffffffffffffffffff166040516127c8929190613c07565b60405180910390a15050565b600460009054906101000a900473ffffffffffffffffffffffffffffffffffffffff1673ffffffffffffffffffffffffffffffffffffffff163373ffffffffffffffffffffffffffffffffffffffff1614806128795750600660003373ffffffffffffffffffffffffffffffffffffffff1673ffffffffffffffffffffffffffffffffffffffff16815260200190815260200160002060009054906101000a900460ff165b6128b8576040517f08c379a00000000000000000000000000000000000000000000000000000000081526004016128af90613d35565b60405180910390fd5b808060016000838152602001908152602001600020600001541480156128f557506000600160008381526020019081526020016000206000015414155b612934576040517f08c379a000000000000000000000000000000000000000000000000000000000815260040161292b90613da1565b60405180910390fd5b81600280811115612948576129476135f8565b5b6001600083815260200190815260200160002060020160009054906101000a900460ff16600281111561297e5761297d6135f8565b5b036129be576040517f08c379a00000000000000000000000000000000000000000000000000000000081526004016129b5906148a1565b60405180910390fd5b6000600160008581526020019081526020016000209050600060028111156129e9576129e86135f8565b5b8160020160009054906101000a900460ff166002811115612a0d57612a0c6135f8565b5b03612a2057612a1b84612ae2565b612a68565b60016002811115612a3457612a336135f8565b5b8160020160009054906101000a900460ff166002811115612a5857612a576135f8565b5b03612a6757612a6684612d72565b5b5b7f2bb8d0b8827e4ec93df718be47878e813165c5c71ebbf1ba01498b5c4d503d9481600001548260020160009054906101000a900460ff1642604051612ab0939291906148c1565b60405180910390a150505050565b600081600001549050919050565b6001816000016000828254019250508190555050565b600460009054906101000a900473ffffffffffffffffffffffffffffffffffffffff1673ffffffffffffffffffffffffffffffffffffffff163373ffffffffffffffffffffffffffffffffffffffff161480612b875750600660003373ffffffffffffffffffffffffffffffffffffffff1673ffffffffffffffffffffffffffffffffffffffff16815260200190815260200160002060009054906101000a900460ff165b612bc6576040517f08c379a0000000000000000000000000000000000000000000000000000000008152600401612bbd90613d35565b60405180910390fd5b806000612bea60016000848152602001908152602001600020600601600301612abe565b11612c2a576040517f08c379a0000000000000000000000000000000000000000000000000000000008152600401612c219061496a565b60405180910390fd5b6000600160008381526020019081526020016000206006016000018054905011612c89576040517f08c379a0000000000000000000000000000000000000000000000000000000008152600401612c80906149fc565b60405180910390fd5b8160006002811115612c9e57612c9d6135f8565b5b6001600083815260200190815260200160002060020160009054906101000a900460ff166002811115612cd457612cd36135f8565b5b14612d14576040517f08c379a0000000000000000000000000000000000000000000000000000000008152600401612d0b90613e33565b60405180910390fd5b600180600085815260200190815260200160002060020160006101000a81548160ff02191690836002811115612d4d57612d4c6135f8565b5b0217905550426001600085815260200190815260200160002060040181905550505050565b600460009054906101000a900473ffffffffffffffffffffffffffffffffffffffff1673ffffffffffffffffffffffffffffffffffffffff163373ffffffffffffffffffffffffffffffffffffffff161480612e175750600660003373ffffffffffffffffffffffffffffffffffffffff1673ffffffffffffffffffffffffffffffffffffffff16815260200190815260200160002060009054906101000a900460ff165b612e56576040517f08c379a0000000000000000000000000000000000000000000000000000000008152600401612e4d90613d35565b60405180910390fd5b8060016002811115612e6b57612e6a6135f8565b5b6001600083815260200190815260200160002060020160009054906101000a900460ff166002811115612ea157612ea06135f8565b5b14612ee1576040517f08c379a0000000000000000000000000000000000000000000000000000000008152600401612ed89061422f565b60405180910390fd5b612eea82612f48565b60026001600084815260200190815260200160002060020160006101000a81548160ff02191690836002811115612f2457612f236135f8565b5b02179055504260016000848152602001908152602001600020600501819055505050565b600460009054906101000a900473ffffffffffffffffffffffffffffffffffffffff1673ffffffffffffffffffffffffffffffffffffffff163373ffffffffffffffffffffffffffffffffffffffff161480612fed5750600660003373ffffffffffffffffffffffffffffffffffffffff1673ffffffffffffffffffffffffffffffffffffffff16815260200190815260200160002060009054906101000a900460ff165b61302c576040517f08c379a000000000000000000000000000000000000000000000000000000000815260040161302390613d35565b60405180910390fd5b8080600160008381526020019081526020016000206000015414801561306957506000600160008381526020019081526020016000206000015414155b6130a8576040517f08c379a000000000000000000000000000000000000000000000000000000000815260040161309f90613da1565b60405180910390fd5b81600160028111156130bd576130bc6135f8565b5b6001600083815260200190815260200160002060020160009054906101000a900460ff1660028111156130f3576130f26135f8565b5b14613133576040517f08c379a000000000000000000000000000000000000000000000000000000000815260040161312a9061422f565b60405180910390fd5b6000600160008581526020019081526020016000209050600061315b82600601600301612abe565b67ffffffffffffffff811115613174576131736136e1565b5b6040519080825280602002602001820160405280156131a25781602001602082028036833780820191505090505b5090506000806000600190505b6131be85600601600301612abe565b811161327d57600081905060006131ee876006016004016000848152602001908152602001600020600401612abe565b90508481111561322557809450600193508186600081518110613214576132136144ae565b5b602002602001018181525050613268565b848103613267578380613237906144dd565b9450508186600186613249919061447a565b8151811061325a576132596144ae565b5b6020026020010181815250505b5b50508080613275906144dd565b9150506131af565b50828460060160020190805190602001906132999291906132a3565b5050505050505050565b8280548282559060005260206000209081019282156132df579160200282015b828111156132de5782518255916020019190600101906132c3565b5b5090506132ec91906132f0565b5090565b5b808211156133095760008160009055506001016132f1565b5090565b600081519050919050565b600082825260208201905092915050565b6000819050602082019050919050565b600073ffffffffffffffffffffffffffffffffffffffff82169050919050565b600061336482613339565b9050919050565b61337481613359565b82525050565b6000613386838361336b565b60208301905092915050565b6000602082019050919050565b60006133aa8261330d565b6133b48185613318565b93506133bf83613329565b8060005b838110156133f05781516133d7888261337a565b97506133e283613392565b9250506001810190506133c3565b5085935050505092915050565b60006020820190508181036000830152613417818461339f565b905092915050565b6000604051905090565b600080fd5b600080fd5b6000819050919050565b61344681613433565b811461345157600080fd5b50565b6000813590506134638161343d565b92915050565b600080604083850312156134805761347f613429565b5b600061348e85828601613454565b925050602061349f85828601613454565b9150509250929050565b6134b281613433565b82525050565b600081519050919050565b600082825260208201905092915050565b60005b838110156134f25780820151818401526020810190506134d7565b60008484015250505050565b6000601f19601f8301169050919050565b600061351a826134b8565b61352481856134c3565b93506135348185602086016134d4565b61353d816134fe565b840191505092915050565b600060a08201905061355d60008301886134a9565b818103602083015261356f818761350f565b90508181036040830152613583818661350f565b90508181036060830152613597818561350f565b90506135a660808301846134a9565b9695505050505050565b60006020820190506135c560008301846134a9565b92915050565b6000602082840312156135e1576135e0613429565b5b60006135ef84828501613454565b91505092915050565b7f4e487b7100000000000000000000000000000000000000000000000000000000600052602160045260246000fd5b60038110613638576136376135f8565b5b50565b600081905061364982613627565b919050565b60006136598261363b565b9050919050565b6136698161364e565b82525050565b600060c08201905061368460008301896134a9565b8181036020830152613696818861350f565b90506136a56040830187613660565b6136b260608301866134a9565b6136bf60808301856134a9565b6136cc60a08301846134a9565b979650505050505050565b600080fd5b600080fd5b7f4e487b7100000000000000000000000000000000000000000000000000000000600052604160045260246000fd5b613719826134fe565b810181811067ffffffffffffffff82111715613738576137376136e1565b5b80604052505050565b600061374b61341f565b90506137578282613710565b919050565b600067ffffffffffffffff821115613777576137766136e1565b5b613780826134fe565b9050602081019050919050565b82818337600083830152505050565b60006137af6137aa8461375c565b613741565b9050828152602081018484840111156137cb576137ca6136dc565b5b6137d684828561378d565b509392505050565b600082601f8301126137f3576137f26136d7565b5b813561380384826020860161379c565b91505092915050565b6000806000806080858703121561382657613825613429565b5b600061383487828801613454565b945050602085013567ffffffffffffffff8111156138555761385461342e565b5b613861878288016137de565b935050604085013567ffffffffffffffff8111156138825761388161342e565b5b61388e878288016137de565b925050606085013567ffffffffffffffff8111156138af576138ae61342e565b5b6138bb878288016137de565b91505092959194509250565b6138d081613359565b81146138db57600080fd5b50565b6000813590506138ed816138c7565b92915050565b60006020828403121561390957613908613429565b5b6000613917848285016138de565b91505092915050565b60008115159050919050565b61393581613920565b82525050565b6000602082019050613950600083018461392c565b92915050565b60008060006060848603121561396f5761396e613429565b5b600061397d86828701613454565b935050602061398e86828701613454565b925050604061399f86828701613454565b9150509250925092565b600060ff82169050919050565b6139bf816139a9565b81146139ca57600080fd5b50565b6000813590506139dc816139b6565b92915050565b6000806000606084860312156139fb576139fa613429565b5b6000613a0986828701613454565b9350506020613a1a86828701613454565b9250506040613a2b868287016139cd565b9150509250925092565b60008060408385031215613a4c57613a4b613429565b5b6000613a5a858286016138de565b9250506020613a6b85828601613454565b9150509250929050565b613a7e816139a9565b82525050565b6000604082019050613a996000830185613a75565b613aa660208301846134a9565b9392505050565b600081519050919050565b600082825260208201905092915050565b6000819050602082019050919050565b613ae281613433565b82525050565b6000613af48383613ad9565b60208301905092915050565b6000602082019050919050565b6000613b1882613aad565b613b228185613ab8565b9350613b2d83613ac9565b8060005b83811015613b5e578151613b458882613ae8565b9750613b5083613b00565b925050600181019050613b31565b5085935050505092915050565b60006020820190508181036000830152613b858184613b0d565b905092915050565b60006020820190508181036000830152613ba7818461350f565b905092915050565b600060208284031215613bc557613bc4613429565b5b600082013567ffffffffffffffff811115613be357613be261342e565b5b613bef848285016137de565b91505092915050565b613c0181613359565b82525050565b6000604082019050613c1c60008301856134a9565b613c296020830184613bf8565b9392505050565b6000602082019050613c456000830184613bf8565b92915050565b6000606082019050613c6060008301866134a9565b613c6d6020830185613bf8565b8181036040830152613c7f8184613b0d565b9050949350505050565b7f4e487b7100000000000000000000000000000000000000000000000000000000600052602260045260246000fd5b60006002820490506001821680613cd057607f821691505b602082108103613ce357613ce2613c89565b5b50919050565b7f43616c6c6572206973206e6f7420616e2061646d696e00000000000000000000600082015250565b6000613d1f6016836134c3565b9150613d2a82613ce9565b602082019050919050565b60006020820190508181036000830152613d4e81613d12565b9050919050565b7f566f74696e672073657373696f6e20646f6573206e6f74206578697374000000600082015250565b6000613d8b601d836134c3565b9150613d9682613d55565b602082019050919050565b60006020820190508181036000830152613dba81613d7e565b9050919050565b7f566f74696e672073657373696f6e207068617365206973206e6f74207265676960008201527f7374726174696f6e000000000000000000000000000000000000000000000000602082015250565b6000613e1d6028836134c3565b9150613e2882613dc1565b604082019050919050565b60006020820190508181036000830152613e4c81613e10565b9050919050565b60008190508160005260206000209050919050565b60006020601f8301049050919050565b600082821b905092915050565b600060088302613eb57fffffffffffffffffffffffffffffffffffffffffffffffffffffffffffffffff82613e78565b613ebf8683613e78565b95508019841693508086168417925050509392505050565b6000819050919050565b6000613efc613ef7613ef284613433565b613ed7565b613433565b9050919050565b6000819050919050565b613f1683613ee1565b613f2a613f2282613f03565b848454613e85565b825550505050565b600090565b613f3f613f32565b613f4a818484613f0d565b505050565b5b81811015613f6e57613f63600082613f37565b600181019050613f50565b5050565b601f821115613fb357613f8481613e53565b613f8d84613e68565b81016020851015613f9c578190505b613fb0613fa885613e68565b830182613f4f565b50505b505050565b600082821c905092915050565b6000613fd660001984600802613fb8565b1980831691505092915050565b6000613fef8383613fc5565b9150826002028217905092915050565b614008826134b8565b67ffffffffffffffff811115614021576140206136e1565b5b61402b8254613cb8565b614036828285613f72565b600060209050601f8311600181146140695760008415614057578287015190505b6140618582613fe3565b8655506140c9565b601f19841661407786613e53565b60005b8281101561409f5784890151825560018201915060208501945060208101905061407a565b868310156140bc57848901516140b8601f891682613fc5565b8355505b6001600288020188555050505b505050505050565b600081546140de81613cb8565b6140e881866134c3565b9450600182166000811461410357600181146141195761414c565b60ff19831686528115156020028601935061414c565b61412285613e53565b60005b8381101561414457815481890152600182019150602081019050614125565b808801955050505b50505092915050565b600060a08201905061416a60008301886134a9565b61417760208301876134a9565b818103604083015261418981866140d1565b9050818103606083015261419d81856140d1565b905081810360808301526141b181846140d1565b90509695505050505050565b7f566f74696e672073657373696f6e207068617365206973206e6f7420766f746960008201527f6e67000000000000000000000000000000000000000000000000000000000000602082015250565b60006142196022836134c3565b9150614224826141bd565b604082019050919050565b600060208201905081810360008301526142488161420c565b9050919050565b7f43616c6c6572206973206e6f74206120766f7465720000000000000000000000600082015250565b60006142856015836134c3565b91506142908261424f565b602082019050919050565b600060208201905081810360008301526142b481614278565b9050919050565b7f43616c6c6572206973206e6f74206120766f746572206f66207468697320766f60008201527f74696e672073657373696f6e0000000000000000000000000000000000000000602082015250565b6000614317602c836134c3565b9150614322826142bb565b604082019050919050565b600060208201905081810360008301526143468161430a565b9050919050565b7f566f7465722068617320616c726561647920766f74656420696e20746869732060008201527f766f74696e672073657373696f6e000000000000000000000000000000000000602082015250565b60006143a9602e836134c3565b91506143b48261434d565b604082019050919050565b600060208201905081810360008301526143d88161439c565b9050919050565b7f43616e64696461746520646f6573206e6f742065786973740000000000000000600082015250565b60006144156018836134c3565b9150614420826143df565b602082019050919050565b6000602082019050818103600083015261444481614408565b9050919050565b7f4e487b7100000000000000000000000000000000000000000000000000000000600052601160045260246000fd5b600061448582613433565b915061449083613433565b92508282039050818111156144a8576144a761444b565b5b92915050565b7f4e487b7100000000000000000000000000000000000000000000000000000000600052603260045260246000fd5b60006144e882613433565b91507fffffffffffffffffffffffffffffffffffffffffffffffffffffffffffffffff820361451a5761451961444b565b5b600182019050919050565b600060808201905061453a60008301876134a9565b61454760208301866134a9565b61455460408301856134a9565b61456160608301846134a9565b95945050505050565b7f566f74657220646f6573206e6f74206578697374000000000000000000000000600082015250565b60006145a06014836134c3565b91506145ab8261456a565b602082019050919050565b600060208201905081810360008301526145cf81614593565b9050919050565b7f566f74696e67207765696768742073686f756c6420626520677265617465722060008201527f7468616e207a65726f0000000000000000000000000000000000000000000000602082015250565b60006146326029836134c3565b915061463d826145d6565b604082019050919050565b6000602082019050818103600083015261466181614625565b9050919050565b7f566f74657220616c7265616479207265676973746572656420666f722074686960008201527f7320766f74696e672073657373696f6e00000000000000000000000000000000602082015250565b60006146c46030836134c3565b91506146cf82614668565b604082019050919050565b600060208201905081810360008301526146f3816146b7565b9050919050565b600060608201905061470f60008301866134a9565b61471c60208301856134a9565b6147296040830184613a75565b949350505050565b7f41646d696e20616c726561647920657869737473000000000000000000000000600082015250565b60006147676014836134c3565b915061477282614731565b602082019050919050565b600060208201905081810360008301526147968161475a565b9050919050565b60006080820190506147b260008301876134a9565b81810360208301526147c481866140d1565b90506147d36040830185613660565b6147e060608301846134a9565b95945050505050565b7f566f74657220616c726561647920657869737473000000000000000000000000600082015250565b600061481f6014836134c3565b915061482a826147e9565b602082019050919050565b6000602082019050818103600083015261484e81614812565b9050919050565b7f566f74696e672073657373696f6e20697320616c726561647920636c6f736564600082015250565b600061488b6020836134c3565b915061489682614855565b602082019050919050565b600060208201905081810360008301526148ba8161487e565b9050919050565b60006060820190506148d660008301866134a9565b6148e36020830185613660565b6148f060408301846134a9565b949350505050565b7f4174206c65617374206f6e652063616e6469646174652073686f756c6420626560008201527f2072656769737465726564000000000000000000000000000000000000000000602082015250565b6000614954602b836134c3565b915061495f826148f8565b604082019050919050565b6000602082019050818103600083015261498381614947565b9050919050565b7f4174206c65617374206f6e6520766f7465722073686f756c642062652072656760008201527f6973746572656400000000000000000000000000000000000000000000000000602082015250565b60006149e66027836134c3565b91506149f18261498a565b604082019050919050565b60006020820190508181036000830152614a15816149d9565b905091905056fea26469706673582212206a9046dd3633b4877c3c476ed660e969d5c66ce2d9d358a971f5d2b6d6aa841b64736f6c63430008120033",
  "linkReferences": {},
  "deployedLinkReferences": {}
}