{
  "_format": "hh-sol-artifact-1",
  "contractName": "DCast",
  "sourceName": "contracts/DCast.sol",
  "abi": [
    {
      "inputs": [],
      "stateMutability": "nonpayable",
      "type": "constructor"
    },
    {
      "anonymous": false,
      "inputs": [
        {
          "indexed": false,
          "internalType": "address",
          "name": "adminAddress",
          "type": "address"
        }
      ],
      "name": "AdminAdded",
      "type": "event"
    },
    {
      "anonymous": false,
      "inputs": [
        {
          "indexed": false,
          "internalType": "uint256",
          "name": "votingSessionID",
          "type": "uint256"
        },
        {
          "indexed": false,
          "internalType": "uint256",
          "name": "candidateID",
          "type": "uint256"
        },
        {
          "indexed": false,
          "internalType": "string",
          "name": "candidateName",
          "type": "string"
        },
        {
          "indexed": false,
          "internalType": "string",
          "name": "description",
          "type": "string"
        },
        {
          "indexed": false,
          "internalType": "string",
          "name": "candidateImageIPFS_URL",
          "type": "string"
        }
      ],
      "name": "CandidateRegistered",
      "type": "event"
    },
    {
      "anonymous": false,
      "inputs": [
        {
          "indexed": false,
          "internalType": "uint256",
          "name": "votingSessionID",
          "type": "uint256"
        },
        {
          "indexed": false,
          "internalType": "uint256",
          "name": "voterID",
          "type": "uint256"
        },
        {
          "indexed": false,
          "internalType": "uint256",
          "name": "votedCandidateID",
          "type": "uint256"
        },
        {
          "indexed": false,
          "internalType": "uint256",
          "name": "votedCandidateVoteCount",
          "type": "uint256"
        }
      ],
      "name": "VoteCasted",
      "type": "event"
    },
    {
      "anonymous": false,
      "inputs": [
        {
          "indexed": false,
          "internalType": "uint256",
          "name": "voterID",
          "type": "uint256"
        },
        {
          "indexed": false,
          "internalType": "address",
          "name": "voterAddress",
          "type": "address"
        }
      ],
      "name": "VoterAdded",
      "type": "event"
    },
    {
      "anonymous": false,
      "inputs": [
        {
          "indexed": false,
          "internalType": "uint256",
          "name": "votingSessionID",
          "type": "uint256"
        },
        {
          "indexed": false,
          "internalType": "uint256",
          "name": "voterID",
          "type": "uint256"
        },
        {
          "indexed": false,
          "internalType": "uint8",
          "name": "votingWeight",
          "type": "uint8"
        }
      ],
      "name": "VoterRegistered",
      "type": "event"
    },
    {
      "anonymous": false,
      "inputs": [
        {
          "indexed": false,
          "internalType": "uint256",
          "name": "votingSessionID",
          "type": "uint256"
        },
        {
          "indexed": false,
          "internalType": "string",
          "name": "votingSessionName",
          "type": "string"
        },
        {
          "indexed": false,
          "internalType": "enum DCast.VotingPhase",
          "name": "phase",
          "type": "uint8"
        },
        {
          "indexed": false,
          "internalType": "uint256",
          "name": "registrationTime",
          "type": "uint256"
        }
      ],
      "name": "VotingSessionAdded",
      "type": "event"
    },
    {
      "anonymous": false,
      "inputs": [
        {
          "indexed": false,
          "internalType": "uint256",
          "name": "votingSessionID",
          "type": "uint256"
        },
        {
          "indexed": false,
          "internalType": "enum DCast.VotingPhase",
          "name": "phase",
          "type": "uint8"
        },
        {
          "indexed": false,
          "internalType": "uint256",
          "name": "time",
          "type": "uint256"
        }
      ],
      "name": "VotingSessionPhaseUpdated",
      "type": "event"
    },
    {
      "inputs": [
        {
          "internalType": "address",
          "name": "_adminAddress",
          "type": "address"
        }
      ],
      "name": "addAdmin",
      "outputs": [],
      "stateMutability": "nonpayable",
      "type": "function"
    },
    {
      "inputs": [
        {
          "internalType": "address",
          "name": "_voterAddress",
          "type": "address"
        }
      ],
      "name": "addVoter",
      "outputs": [],
      "stateMutability": "nonpayable",
      "type": "function"
    },
    {
      "inputs": [
        {
          "internalType": "string",
          "name": "_votingSessionName",
          "type": "string"
        }
      ],
      "name": "addVotingSession",
      "outputs": [],
      "stateMutability": "nonpayable",
      "type": "function"
    },
    {
      "inputs": [
        {
          "internalType": "uint256",
          "name": "",
          "type": "uint256"
        }
      ],
      "name": "adminAddresses",
      "outputs": [
        {
          "internalType": "address",
          "name": "",
          "type": "address"
        }
      ],
      "stateMutability": "view",
      "type": "function"
    },
    {
      "inputs": [
        {
          "internalType": "address",
          "name": "",
          "type": "address"
        }
      ],
      "name": "admins",
      "outputs": [
        {
          "internalType": "bool",
          "name": "",
          "type": "bool"
        }
      ],
      "stateMutability": "view",
      "type": "function"
    },
    {
      "inputs": [
        {
          "internalType": "uint256",
          "name": "_votingSessionID",
          "type": "uint256"
        },
        {
          "internalType": "uint256",
          "name": "_voterID",
          "type": "uint256"
        },
        {
          "internalType": "uint256",
          "name": "_candidateID",
          "type": "uint256"
        }
      ],
      "name": "castVote",
      "outputs": [],
      "stateMutability": "nonpayable",
      "type": "function"
    },
    {
      "inputs": [
        {
          "internalType": "address",
          "name": "_accountAddress",
          "type": "address"
        }
      ],
      "name": "checkAccountType",
      "outputs": [
        {
          "internalType": "string",
          "name": "",
          "type": "string"
        }
      ],
      "stateMutability": "view",
      "type": "function"
    },
    {
      "inputs": [],
      "name": "contractOwner",
      "outputs": [
        {
          "internalType": "address",
          "name": "",
          "type": "address"
        }
      ],
      "stateMutability": "view",
      "type": "function"
    },
    {
      "inputs": [],
      "name": "getAdminAddresses",
      "outputs": [
        {
          "internalType": "address[]",
          "name": "",
          "type": "address[]"
        }
      ],
      "stateMutability": "view",
      "type": "function"
    },
    {
      "inputs": [],
      "name": "getContractOwnerAddress",
      "outputs": [
        {
          "internalType": "address",
          "name": "",
          "type": "address"
        }
      ],
      "stateMutability": "view",
      "type": "function"
    },
    {
      "inputs": [],
      "name": "getVoterAddresses",
      "outputs": [
        {
          "internalType": "address[]",
          "name": "",
          "type": "address[]"
        }
      ],
      "stateMutability": "view",
      "type": "function"
    },
    {
      "inputs": [],
      "name": "getVoterCount",
      "outputs": [
        {
          "internalType": "uint256",
          "name": "",
          "type": "uint256"
        }
      ],
      "stateMutability": "view",
      "type": "function"
    },
    {
      "inputs": [
        {
          "internalType": "address",
          "name": "_voterAddress",
          "type": "address"
        }
      ],
      "name": "getVoterDetails",
      "outputs": [
        {
          "internalType": "uint256",
          "name": "",
          "type": "uint256"
        },
        {
          "internalType": "address",
          "name": "",
          "type": "address"
        },
        {
          "internalType": "uint256[]",
          "name": "",
          "type": "uint256[]"
        }
      ],
      "stateMutability": "view",
      "type": "function"
    },
    {
      "inputs": [
        {
          "internalType": "address",
          "name": "_voterAddress",
          "type": "address"
        },
        {
          "internalType": "uint256",
          "name": "_votingSessionID",
          "type": "uint256"
        }
      ],
      "name": "getVoterVotingSessionDetails",
      "outputs": [
        {
          "internalType": "uint8",
          "name": "",
          "type": "uint8"
        },
        {
          "internalType": "uint256",
          "name": "",
          "type": "uint256"
        }
      ],
      "stateMutability": "view",
      "type": "function"
    },
    {
      "inputs": [
        {
          "internalType": "uint256",
          "name": "_votingSessionID",
          "type": "uint256"
        }
      ],
      "name": "getVotingSessionCandidateCount",
      "outputs": [
        {
          "internalType": "uint256",
          "name": "",
          "type": "uint256"
        }
      ],
      "stateMutability": "view",
      "type": "function"
    },
    {
      "inputs": [
        {
          "internalType": "uint256",
          "name": "_votingSessionID",
          "type": "uint256"
        },
        {
          "internalType": "uint256",
          "name": "_candidateID",
          "type": "uint256"
        }
      ],
      "name": "getVotingSessionCandidateDetails",
      "outputs": [
        {
          "internalType": "uint256",
          "name": "",
          "type": "uint256"
        },
        {
          "internalType": "string",
          "name": "",
          "type": "string"
        },
        {
          "internalType": "string",
          "name": "",
          "type": "string"
        },
        {
          "internalType": "string",
          "name": "",
          "type": "string"
        },
        {
          "internalType": "uint256",
          "name": "",
          "type": "uint256"
        }
      ],
      "stateMutability": "view",
      "type": "function"
    },
    {
      "inputs": [],
      "name": "getVotingSessionCount",
      "outputs": [
        {
          "internalType": "uint256",
          "name": "",
          "type": "uint256"
        }
      ],
      "stateMutability": "view",
      "type": "function"
    },
    {
      "inputs": [
        {
          "internalType": "uint256",
          "name": "_votingSessionID",
          "type": "uint256"
        }
      ],
      "name": "getVotingSessionDetails",
      "outputs": [
        {
          "internalType": "uint256",
          "name": "",
          "type": "uint256"
        },
        {
          "internalType": "string",
          "name": "",
          "type": "string"
        },
        {
          "internalType": "enum DCast.VotingPhase",
          "name": "",
          "type": "uint8"
        },
        {
          "internalType": "uint256",
          "name": "",
          "type": "uint256"
        },
        {
          "internalType": "uint256",
          "name": "",
          "type": "uint256"
        },
        {
          "internalType": "uint256",
          "name": "",
          "type": "uint256"
        }
      ],
      "stateMutability": "view",
      "type": "function"
    },
    {
      "inputs": [
        {
          "internalType": "uint256",
          "name": "_votingSessionID",
          "type": "uint256"
        }
      ],
      "name": "getVotingSessionRegisteredVoterIDs",
      "outputs": [
        {
          "internalType": "uint256[]",
          "name": "",
          "type": "uint256[]"
        }
      ],
      "stateMutability": "view",
      "type": "function"
    },
    {
      "inputs": [
        {
          "internalType": "uint256",
          "name": "_votingSessionID",
          "type": "uint256"
        }
      ],
      "name": "getVotingSessionWinnerCandidateIDs",
      "outputs": [
        {
          "internalType": "uint256[]",
          "name": "",
          "type": "uint256[]"
        }
      ],
      "stateMutability": "view",
      "type": "function"
    },
    {
      "inputs": [
        {
          "internalType": "uint256",
          "name": "_votingSessionID",
          "type": "uint256"
        },
        {
          "internalType": "string",
          "name": "_candidateName",
          "type": "string"
        },
        {
          "internalType": "string",
          "name": "_description",
          "type": "string"
        },
        {
          "internalType": "string",
          "name": "_candidateImageIPFS_URL",
          "type": "string"
        }
      ],
      "name": "registerCandidate",
      "outputs": [],
      "stateMutability": "nonpayable",
      "type": "function"
    },
    {
      "inputs": [
        {
          "internalType": "uint256",
          "name": "_votingSessionID",
          "type": "uint256"
        },
        {
          "internalType": "uint256",
          "name": "_voterID",
          "type": "uint256"
        },
        {
          "internalType": "uint8",
          "name": "_votingWeight",
          "type": "uint8"
        }
      ],
      "name": "registerVoter",
      "outputs": [],
      "stateMutability": "nonpayable",
      "type": "function"
    },
    {
      "inputs": [
        {
          "internalType": "uint256",
          "name": "_votingSessionID",
          "type": "uint256"
        }
      ],
      "name": "updateVotingSessionPhase",
      "outputs": [],
      "stateMutability": "nonpayable",
      "type": "function"
    },
    {
      "inputs": [
        {
          "internalType": "uint256",
          "name": "",
          "type": "uint256"
        }
      ],
      "name": "voterAddresses",
      "outputs": [
        {
          "internalType": "address",
          "name": "",
          "type": "address"
        }
      ],
      "stateMutability": "view",
      "type": "function"
    },
    {
      "inputs": [
        {
          "internalType": "address",
          "name": "",
          "type": "address"
        }
      ],
      "name": "voters",
      "outputs": [
        {
          "internalType": "uint256",
          "name": "voterID",
          "type": "uint256"
        },
        {
          "internalType": "address",
          "name": "voterAddress",
          "type": "address"
        }
      ],
      "stateMutability": "view",
      "type": "function"
    },
    {
      "inputs": [],
      "name": "votingSessionCount",
      "outputs": [
        {
          "internalType": "uint256",
          "name": "_value",
          "type": "uint256"
        }
      ],
      "stateMutability": "view",
      "type": "function"
    }
  ],
  "bytecode": "0x60806040523480156200001157600080fd5b5033600460006101000a81548173ffffffffffffffffffffffffffffffffffffffff021916908373ffffffffffffffffffffffffffffffffffffffff16021790555062000086600460009054906101000a900473ffffffffffffffffffffffffffffffffffffffff166200008c60201b60201c565b62000454565b600460009054906101000a900473ffffffffffffffffffffffffffffffffffffffff1673ffffffffffffffffffffffffffffffffffffffff163373ffffffffffffffffffffffffffffffffffffffff161480620001325750600660003373ffffffffffffffffffffffffffffffffffffffff1673ffffffffffffffffffffffffffffffffffffffff16815260200190815260200160002060009054906101000a900460ff165b62000174576040517f08c379a00000000000000000000000000000000000000000000000000000000081526004016200016b906200035e565b60405180910390fd5b80600660008273ffffffffffffffffffffffffffffffffffffffff1673ffffffffffffffffffffffffffffffffffffffff16815260200190815260200160002060009054906101000a900460ff161562000205576040517f08c379a0000000000000000000000000000000000000000000000000000000008152600401620001fc90620003d0565b60405180910390fd5b6005829080600181540180825580915050600190039060005260206000200160009091909190916101000a81548173ffffffffffffffffffffffffffffffffffffffff021916908373ffffffffffffffffffffffffffffffffffffffff1602179055506001600660008473ffffffffffffffffffffffffffffffffffffffff1673ffffffffffffffffffffffffffffffffffffffff16815260200190815260200160002060006101000a81548160ff0219169083151502179055507f44d6d25963f097ad14f29f06854a01f575648a1ef82f30e562ccd3889717e33982604051620002f1919062000437565b60405180910390a15050565b600082825260208201905092915050565b7f43616c6c6572206973206e6f7420616e2061646d696e00000000000000000000600082015250565b600062000346601683620002fd565b915062000353826200030e565b602082019050919050565b60006020820190508181036000830152620003798162000337565b9050919050565b7f41646d696e20616c726561647920657869737473000000000000000000000000600082015250565b6000620003b8601483620002fd565b9150620003c58262000380565b602082019050919050565b60006020820190508181036000830152620003eb81620003a9565b9050919050565b600073ffffffffffffffffffffffffffffffffffffffff82169050919050565b60006200041f82620003f2565b9050919050565b620004318162000412565b82525050565b60006020820190506200044e600083018462000426565b92915050565b61493a80620004646000396000f3fe608060405234801561001057600080fd5b506004361061018e5760003560e01c80639fc42460116100de578063be13614011610097578063dd0e237311610071578063dd0e2373146104f0578063e0e7127a14610520578063f4ab9adf1461053e578063fb7a45721461055a5761018e565b8063be13614014610472578063ce606ee0146104a2578063d6640df7146104c05761018e565b80639fc4246014610387578063a3ec138d146103a3578063ad19cbc1146103d4578063b6c5947e146103f2578063ba44eecf14610410578063ba71bef0146104405761018e565b80635be5e3ec1161014b578063704802751161012557806370480275146102da578063807884d6146102f657806383c495da146103275780638b50c9d9146103575761018e565b80635be5e3ec1461028457806364ddfa29146102a05780636d611b77146102be5761018e565b80630a16e30b146101935780630cab32b6146101b157806311174a29146101e557806318118402146102035780633d1b5eae14610238578063429b62e514610254575b600080fd5b61019b610576565b6040516101a891906132e5565b60405180910390f35b6101cb60048036038101906101c69190613351565b610604565b6040516101dc959493929190613430565b60405180910390f35b6101ed6108af565b6040516101fa9190613498565b60405180910390f35b61021d600480360381019061021891906134b3565b6108bc565b60405161022f96959493929190613557565b60405180910390f35b610252600480360381019061024d91906136f4565b6109fd565b005b61026e600480360381019061026991906137db565b610c4b565b60405161027b9190613823565b60405180910390f35b61029e6004803603810190610299919061383e565b610c6b565b005b6102a86111e7565b6040516102b591906132e5565b60405180910390f35b6102d860048036038101906102d391906138ca565b611275565b005b6102f460048036038101906102ef91906137db565b611849565b005b610310600480360381019061030b919061391d565b611ab1565b60405161031e92919061396c565b60405180910390f35b610341600480360381019061033c91906134b3565b611b7a565b60405161034e9190613a53565b60405180910390f35b610371600480360381019061036c91906137db565b611beb565b60405161037e9190613a75565b60405180910390f35b6103a1600480360381019061039c9190613a97565b611e1e565b005b6103bd60048036038101906103b891906137db565b611fe0565b6040516103cb929190613aef565b60405180910390f35b6103dc612024565b6040516103e99190613498565b60405180910390f35b6103fa612035565b6040516104079190613498565b60405180910390f35b61042a600480360381019061042591906134b3565b612041565b6040516104379190613b18565b60405180910390f35b61045a600480360381019061045591906137db565b612080565b60405161046993929190613b33565b60405180910390f35b61048c600480360381019061048791906134b3565b6121cc565b6040516104999190613a53565b60405180910390f35b6104aa61223d565b6040516104b79190613b18565b60405180910390f35b6104da60048036038101906104d591906134b3565b612263565b6040516104e79190613498565b60405180910390f35b61050a600480360381019061050591906134b3565b61228d565b6040516105179190613b18565b60405180910390f35b6105286122cc565b6040516105359190613b18565b60405180910390f35b610558600480360381019061055391906137db565b6122f6565b005b610574600480360381019061056f91906134b3565b6126bc565b005b606060028054806020026020016040519081016040528092919081815260200182805480156105fa57602002820191906000526020600020905b8160009054906101000a900473ffffffffffffffffffffffffffffffffffffffff1673ffffffffffffffffffffffffffffffffffffffff16815260200190600101908083116105b0575b5050505050905090565b60006060806060600060016000888152602001908152602001600020600601600401600087815260200190815260200160002060000154600160008981526020019081526020016000206006016004016000888152602001908152602001600020600101600160008a81526020019081526020016000206006016004016000898152602001908152602001600020600201600160008b815260200190815260200160002060060160040160008a81526020019081526020016000206003016106f7600160008d815260200190815260200160002060060160040160008c81526020019081526020016000206004016129a6565b83805461070390613ba0565b80601f016020809104026020016040519081016040528092919081815260200182805461072f90613ba0565b801561077c5780601f106107515761010080835404028352916020019161077c565b820191906000526020600020905b81548152906001019060200180831161075f57829003601f168201915b5050505050935082805461078f90613ba0565b80601f01602080910402602001604051908101604052809291908181526020018280546107bb90613ba0565b80156108085780601f106107dd57610100808354040283529160200191610808565b820191906000526020600020905b8154815290600101906020018083116107eb57829003601f168201915b5050505050925081805461081b90613ba0565b80601f016020809104026020016040519081016040528092919081815260200182805461084790613ba0565b80156108945780601f1061086957610100808354040283529160200191610894565b820191906000526020600020905b81548152906001019060200180831161087757829003601f168201915b50505050509150945094509450945094509295509295909350565b6000600280549050905090565b60006060600080600080600160008881526020019081526020016000206000015460016000898152602001908152602001600020600101600160008a815260200190815260200160002060020160009054906101000a900460ff16600160008b815260200190815260200160002060030154600160008c815260200190815260200160002060040154600160008d81526020019081526020016000206005015484805461096890613ba0565b80601f016020809104026020016040519081016040528092919081815260200182805461099490613ba0565b80156109e15780601f106109b6576101008083540402835291602001916109e1565b820191906000526020600020905b8154815290600101906020018083116109c457829003601f168201915b5050505050945095509550955095509550955091939550919395565b600460009054906101000a900473ffffffffffffffffffffffffffffffffffffffff1673ffffffffffffffffffffffffffffffffffffffff163373ffffffffffffffffffffffffffffffffffffffff161480610aa25750600660003373ffffffffffffffffffffffffffffffffffffffff1673ffffffffffffffffffffffffffffffffffffffff16815260200190815260200160002060009054906101000a900460ff165b610ae1576040517f08c379a0000000000000000000000000000000000000000000000000000000008152600401610ad890613c1d565b60405180910390fd5b83806001600083815260200190815260200160002060000154148015610b1e57506000600160008381526020019081526020016000206000015414155b610b5d576040517f08c379a0000000000000000000000000000000000000000000000000000000008152600401610b5490613c89565b60405180910390fd5b6000600160008781526020019081526020016000209050610b83816006016003016129b4565b6000610b94826006016003016129a6565b90506000826006016004016000838152602001908152602001600020905081816000018190555086816001019081610bcc9190613e55565b5085816002019081610bde9190613e55565b5084816003019081610bf09190613e55565b507f71b52de267ee67b215667e59f77471dd030da30e9477486800966462c2a2161c83600001548260000154836001018460020185600301604051610c39959493929190613fab565b60405180910390a15050505050505050565b60066020528060005260406000206000915054906101000a900460ff1681565b82806001600083815260200190815260200160002060000154148015610ca857506000600160008381526020019081526020016000206000015414155b610ce7576040517f08c379a0000000000000000000000000000000000000000000000000000000008152600401610cde90613c89565b60405180910390fd5b8360016002811115610cfc57610cfb6134e0565b5b6001600083815260200190815260200160002060020160009054906101000a900460ff166002811115610d3257610d316134e0565b5b14610d72576040517f08c379a0000000000000000000000000000000000000000000000000000000008152600401610d6990614085565b60405180910390fd5b843373ffffffffffffffffffffffffffffffffffffffff16600360003373ffffffffffffffffffffffffffffffffffffffff1673ffffffffffffffffffffffffffffffffffffffff16815260200190815260200160002060010160009054906101000a900473ffffffffffffffffffffffffffffffffffffffff1673ffffffffffffffffffffffffffffffffffffffff1614610e43576040517f08c379a0000000000000000000000000000000000000000000000000000000008152600401610e3a906140f1565b60405180910390fd5b60011515600160008381526020019081526020016000206006016001016000600360003373ffffffffffffffffffffffffffffffffffffffff1673ffffffffffffffffffffffffffffffffffffffff16815260200190815260200160002060000154815260200190815260200160002060009054906101000a900460ff16151514610f03576040517f08c379a0000000000000000000000000000000000000000000000000000000008152600401610efa90614183565b60405180910390fd5b856000600360003373ffffffffffffffffffffffffffffffffffffffff1673ffffffffffffffffffffffffffffffffffffffff16815260200190815260200160002060030160008381526020019081526020016000206001015414610f9d576040517f08c379a0000000000000000000000000000000000000000000000000000000008152600401610f9490614215565b60405180910390fd5b868580600160008481526020019081526020016000206006016004016000838152602001908152602001600020600001541461100e576040517f08c379a000000000000000000000000000000000000000000000000000000000815260040161100590614281565b60405180910390fd5b6000600160008b815260200190815260200160002090506000600260018b61103691906142d0565b8154811061104757611046614304565b5b9060005260206000200160009054906101000a900473ffffffffffffffffffffffffffffffffffffffff16905088600360008373ffffffffffffffffffffffffffffffffffffffff1673ffffffffffffffffffffffffffffffffffffffff16815260200190815260200160002060030160008d81526020019081526020016000206001018190555060005b600360008373ffffffffffffffffffffffffffffffffffffffff1673ffffffffffffffffffffffffffffffffffffffff16815260200190815260200160002060030160008d815260200190815260200160002060000160009054906101000a900460ff1660ff16811015611176576111638360060160040160008c81526020019081526020016000206004016129b4565b808061116e90614333565b9150506110d2565b507f1d00f175f966d6ae39caadce46718e13da02231dd6515c39615e4b818bd69b8882600001548b8b6111c28660060160040160008f81526020019081526020016000206004016129a6565b6040516111d2949392919061437b565b60405180910390a15050505050505050505050565b6060600580548060200260200160405190810160405280929190818152602001828054801561126b57602002820191906000526020600020905b8160009054906101000a900473ffffffffffffffffffffffffffffffffffffffff1673ffffffffffffffffffffffffffffffffffffffff1681526020019060010190808311611221575b5050505050905090565b600460009054906101000a900473ffffffffffffffffffffffffffffffffffffffff1673ffffffffffffffffffffffffffffffffffffffff163373ffffffffffffffffffffffffffffffffffffffff16148061131a5750600660003373ffffffffffffffffffffffffffffffffffffffff1673ffffffffffffffffffffffffffffffffffffffff16815260200190815260200160002060009054906101000a900460ff165b611359576040517f08c379a000000000000000000000000000000000000000000000000000000000815260040161135090613c1d565b60405180910390fd5b8280600160008381526020019081526020016000206000015414801561139657506000600160008381526020019081526020016000206000015414155b6113d5576040517f08c379a00000000000000000000000000000000000000000000000000000000081526004016113cc90613c89565b60405180910390fd5b82806003600060026001856113ea91906142d0565b815481106113fb576113fa614304565b5b9060005260206000200160009054906101000a900473ffffffffffffffffffffffffffffffffffffffff1673ffffffffffffffffffffffffffffffffffffffff1673ffffffffffffffffffffffffffffffffffffffff168152602001908152602001600020600001541480156114fe5750600060036000600260018561148191906142d0565b8154811061149257611491614304565b5b9060005260206000200160009054906101000a900473ffffffffffffffffffffffffffffffffffffffff1673ffffffffffffffffffffffffffffffffffffffff1673ffffffffffffffffffffffffffffffffffffffff1681526020019081526020016000206000015414155b61153d576040517f08c379a00000000000000000000000000000000000000000000000000000000081526004016115349061440c565b60405180910390fd5b8260008160ff1611611584576040517f08c379a000000000000000000000000000000000000000000000000000000000815260040161157b9061449e565b60405180910390fd5b858560016000838152602001908152602001600020600601600101600082815260200190815260200160002060009054906101000a900460ff16156115fe576040517f08c379a00000000000000000000000000000000000000000000000000000000081526004016115f590614530565b60405180910390fd5b6000600160008a815260200190815260200160002090508060060160000188908060018154018082558091505060019003906000526020600020016000909190919091505560018160060160010160008a815260200190815260200160002060006101000a81548160ff0219169083151502179055506000600260018a61168591906142d0565b8154811061169657611695614304565b5b9060005260206000200160009054906101000a900473ffffffffffffffffffffffffffffffffffffffff169050600360008273ffffffffffffffffffffffffffffffffffffffff1673ffffffffffffffffffffffffffffffffffffffff1681526020019081526020016000206002018a908060018154018082558091505060019003906000526020600020016000909190919091505587600360008373ffffffffffffffffffffffffffffffffffffffff1673ffffffffffffffffffffffffffffffffffffffff16815260200190815260200160002060030160008c815260200190815260200160002060000160006101000a81548160ff021916908360ff1602179055507fcde045a1fbcc6cdd390196d6014b3603de441c34590402c16acec89cfc50eea282600001548a600360008573ffffffffffffffffffffffffffffffffffffffff1673ffffffffffffffffffffffffffffffffffffffff16815260200190815260200160002060030160008e815260200190815260200160002060000160009054906101000a900460ff1660405161183593929190614550565b60405180910390a150505050505050505050565b600460009054906101000a900473ffffffffffffffffffffffffffffffffffffffff1673ffffffffffffffffffffffffffffffffffffffff163373ffffffffffffffffffffffffffffffffffffffff1614806118ee5750600660003373ffffffffffffffffffffffffffffffffffffffff1673ffffffffffffffffffffffffffffffffffffffff16815260200190815260200160002060009054906101000a900460ff165b61192d576040517f08c379a000000000000000000000000000000000000000000000000000000000815260040161192490613c1d565b60405180910390fd5b80600660008273ffffffffffffffffffffffffffffffffffffffff1673ffffffffffffffffffffffffffffffffffffffff16815260200190815260200160002060009054906101000a900460ff16156119bb576040517f08c379a00000000000000000000000000000000000000000000000000000000081526004016119b2906145d3565b60405180910390fd5b6005829080600181540180825580915050600190039060005260206000200160009091909190916101000a81548173ffffffffffffffffffffffffffffffffffffffff021916908373ffffffffffffffffffffffffffffffffffffffff1602179055506001600660008473ffffffffffffffffffffffffffffffffffffffff1673ffffffffffffffffffffffffffffffffffffffff16815260200190815260200160002060006101000a81548160ff0219169083151502179055507f44d6d25963f097ad14f29f06854a01f575648a1ef82f30e562ccd3889717e33982604051611aa59190613b18565b60405180910390a15050565b600080600360008573ffffffffffffffffffffffffffffffffffffffff1673ffffffffffffffffffffffffffffffffffffffff168152602001908152602001600020600301600084815260200190815260200160002060000160009054906101000a900460ff16600360008673ffffffffffffffffffffffffffffffffffffffff1673ffffffffffffffffffffffffffffffffffffffff168152602001908152602001600020600301600085815260200190815260200160002060010154915091509250929050565b606060016000838152602001908152602001600020600601600201805480602002602001604051908101604052809291908181526020018280548015611bdf57602002820191906000526020600020905b815481526020019060010190808311611bcb575b50505050509050919050565b6060600460009054906101000a900473ffffffffffffffffffffffffffffffffffffffff1673ffffffffffffffffffffffffffffffffffffffff168273ffffffffffffffffffffffffffffffffffffffff1603611c7f576040518060400160405280600581526020017f4f776e65720000000000000000000000000000000000000000000000000000008152509050611e19565b600660008373ffffffffffffffffffffffffffffffffffffffff1673ffffffffffffffffffffffffffffffffffffffff16815260200190815260200160002060009054906101000a900460ff1615611d0e576040518060400160405280600581526020017f41646d696e0000000000000000000000000000000000000000000000000000008152509050611e19565b8173ffffffffffffffffffffffffffffffffffffffff16600360008473ffffffffffffffffffffffffffffffffffffffff1673ffffffffffffffffffffffffffffffffffffffff16815260200190815260200160002060010160009054906101000a900473ffffffffffffffffffffffffffffffffffffffff1673ffffffffffffffffffffffffffffffffffffffff1603611de0576040518060400160405280600581526020017f566f7465720000000000000000000000000000000000000000000000000000008152509050611e19565b6040518060400160405280600581526020017f477565737400000000000000000000000000000000000000000000000000000081525090505b919050565b600460009054906101000a900473ffffffffffffffffffffffffffffffffffffffff1673ffffffffffffffffffffffffffffffffffffffff163373ffffffffffffffffffffffffffffffffffffffff161480611ec35750600660003373ffffffffffffffffffffffffffffffffffffffff1673ffffffffffffffffffffffffffffffffffffffff16815260200190815260200160002060009054906101000a900460ff165b611f02576040517f08c379a0000000000000000000000000000000000000000000000000000000008152600401611ef990613c1d565b60405180910390fd5b611f0c60006129b4565b6000611f1860006129a6565b9050600060016000838152602001908152602001600020905081816000018190555082816001019081611f4b9190613e55565b5060008160020160006101000a81548160ff02191690836002811115611f7457611f736134e0565b5b02179055504281600301819055507f8a2fe9401f708f991a536bf09dd5e8550057f1a47104fd8efc8c17de1b6cf85a8160000154826001018360020160009054906101000a900460ff168460030154604051611fd394939291906145f3565b60405180910390a1505050565b60036020528060005260406000206000915090508060000154908060010160009054906101000a900473ffffffffffffffffffffffffffffffffffffffff16905082565b600061203060006129a6565b905090565b60008060000154905081565b6005818154811061205157600080fd5b906000526020600020016000915054906101000a900473ffffffffffffffffffffffffffffffffffffffff1681565b6000806060600360008573ffffffffffffffffffffffffffffffffffffffff1673ffffffffffffffffffffffffffffffffffffffff16815260200190815260200160002060000154600360008673ffffffffffffffffffffffffffffffffffffffff1673ffffffffffffffffffffffffffffffffffffffff16815260200190815260200160002060010160009054906101000a900473ffffffffffffffffffffffffffffffffffffffff16600360008773ffffffffffffffffffffffffffffffffffffffff1673ffffffffffffffffffffffffffffffffffffffff168152602001908152602001600020600201808054806020026020016040519081016040528092919081815260200182805480156121b857602002820191906000526020600020905b8154815260200190600101908083116121a4575b505050505090509250925092509193909250565b60606001600083815260200190815260200160002060060160000180548060200260200160405190810160405280929190818152602001828054801561223157602002820191906000526020600020905b81548152602001906001019080831161221d575b50505050509050919050565b600460009054906101000a900473ffffffffffffffffffffffffffffffffffffffff1681565b6000612286600160008481526020019081526020016000206006016003016129a6565b9050919050565b6002818154811061229d57600080fd5b906000526020600020016000915054906101000a900473ffffffffffffffffffffffffffffffffffffffff1681565b6000600460009054906101000a900473ffffffffffffffffffffffffffffffffffffffff16905090565b600460009054906101000a900473ffffffffffffffffffffffffffffffffffffffff1673ffffffffffffffffffffffffffffffffffffffff163373ffffffffffffffffffffffffffffffffffffffff16148061239b5750600660003373ffffffffffffffffffffffffffffffffffffffff1673ffffffffffffffffffffffffffffffffffffffff16815260200190815260200160002060009054906101000a900460ff165b6123da576040517f08c379a00000000000000000000000000000000000000000000000000000000081526004016123d190613c1d565b60405180910390fd5b808073ffffffffffffffffffffffffffffffffffffffff16600360008373ffffffffffffffffffffffffffffffffffffffff1673ffffffffffffffffffffffffffffffffffffffff16815260200190815260200160002060010160009054906101000a900473ffffffffffffffffffffffffffffffffffffffff1673ffffffffffffffffffffffffffffffffffffffff16036124ab576040517f08c379a00000000000000000000000000000000000000000000000000000000081526004016124a29061468b565b60405180910390fd5b6002829080600181540180825580915050600190039060005260206000200160009091909190916101000a81548173ffffffffffffffffffffffffffffffffffffffff021916908373ffffffffffffffffffffffffffffffffffffffff160217905550600280549050600360008473ffffffffffffffffffffffffffffffffffffffff1673ffffffffffffffffffffffffffffffffffffffff1681526020019081526020016000206000018190555081600360008473ffffffffffffffffffffffffffffffffffffffff1673ffffffffffffffffffffffffffffffffffffffff16815260200190815260200160002060010160006101000a81548173ffffffffffffffffffffffffffffffffffffffff021916908373ffffffffffffffffffffffffffffffffffffffff1602179055507fbe03f66069cbbe16c325546c4cf7a8d334ab3baa0a1e50ad1b5955cf7565f514600360008473ffffffffffffffffffffffffffffffffffffffff1673ffffffffffffffffffffffffffffffffffffffff16815260200190815260200160002060000154600360008573ffffffffffffffffffffffffffffffffffffffff1673ffffffffffffffffffffffffffffffffffffffff16815260200190815260200160002060010160009054906101000a900473ffffffffffffffffffffffffffffffffffffffff166040516126b0929190613aef565b60405180910390a15050565b600460009054906101000a900473ffffffffffffffffffffffffffffffffffffffff1673ffffffffffffffffffffffffffffffffffffffff163373ffffffffffffffffffffffffffffffffffffffff1614806127615750600660003373ffffffffffffffffffffffffffffffffffffffff1673ffffffffffffffffffffffffffffffffffffffff16815260200190815260200160002060009054906101000a900460ff165b6127a0576040517f08c379a000000000000000000000000000000000000000000000000000000000815260040161279790613c1d565b60405180910390fd5b808060016000838152602001908152602001600020600001541480156127dd57506000600160008381526020019081526020016000206000015414155b61281c576040517f08c379a000000000000000000000000000000000000000000000000000000000815260040161281390613c89565b60405180910390fd5b816002808111156128305761282f6134e0565b5b6001600083815260200190815260200160002060020160009054906101000a900460ff166002811115612866576128656134e0565b5b036128a6576040517f08c379a000000000000000000000000000000000000000000000000000000000815260040161289d906146f7565b60405180910390fd5b6000600160008581526020019081526020016000209050600060028111156128d1576128d06134e0565b5b8160020160009054906101000a900460ff1660028111156128f5576128f46134e0565b5b0361290857612903846129ca565b612950565b6001600281111561291c5761291b6134e0565b5b8160020160009054906101000a900460ff1660028111156129405761293f6134e0565b5b0361294f5761294e84612c5a565b5b5b7f2bb8d0b8827e4ec93df718be47878e813165c5c71ebbf1ba01498b5c4d503d9481600001548260020160009054906101000a900460ff164260405161299893929190614717565b60405180910390a150505050565b600081600001549050919050565b6001816000016000828254019250508190555050565b600460009054906101000a900473ffffffffffffffffffffffffffffffffffffffff1673ffffffffffffffffffffffffffffffffffffffff163373ffffffffffffffffffffffffffffffffffffffff161480612a6f5750600660003373ffffffffffffffffffffffffffffffffffffffff1673ffffffffffffffffffffffffffffffffffffffff16815260200190815260200160002060009054906101000a900460ff165b612aae576040517f08c379a0000000000000000000000000000000000000000000000000000000008152600401612aa590613c1d565b60405180910390fd5b806000612ad2600160008481526020019081526020016000206006016003016129a6565b11612b12576040517f08c379a0000000000000000000000000000000000000000000000000000000008152600401612b09906147c0565b60405180910390fd5b6000600160008381526020019081526020016000206006016000018054905011612b71576040517f08c379a0000000000000000000000000000000000000000000000000000000008152600401612b6890614852565b60405180910390fd5b8160006002811115612b8657612b856134e0565b5b6001600083815260200190815260200160002060020160009054906101000a900460ff166002811115612bbc57612bbb6134e0565b5b14612bfc576040517f08c379a0000000000000000000000000000000000000000000000000000000008152600401612bf3906148e4565b60405180910390fd5b600180600085815260200190815260200160002060020160006101000a81548160ff02191690836002811115612c3557612c346134e0565b5b0217905550426001600085815260200190815260200160002060040181905550505050565b600460009054906101000a900473ffffffffffffffffffffffffffffffffffffffff1673ffffffffffffffffffffffffffffffffffffffff163373ffffffffffffffffffffffffffffffffffffffff161480612cff5750600660003373ffffffffffffffffffffffffffffffffffffffff1673ffffffffffffffffffffffffffffffffffffffff16815260200190815260200160002060009054906101000a900460ff165b612d3e576040517f08c379a0000000000000000000000000000000000000000000000000000000008152600401612d3590613c1d565b60405180910390fd5b8060016002811115612d5357612d526134e0565b5b6001600083815260200190815260200160002060020160009054906101000a900460ff166002811115612d8957612d886134e0565b5b14612dc9576040517f08c379a0000000000000000000000000000000000000000000000000000000008152600401612dc090614085565b60405180910390fd5b612dd282612e30565b60026001600084815260200190815260200160002060020160006101000a81548160ff02191690836002811115612e0c57612e0b6134e0565b5b02179055504260016000848152602001908152602001600020600501819055505050565b600460009054906101000a900473ffffffffffffffffffffffffffffffffffffffff1673ffffffffffffffffffffffffffffffffffffffff163373ffffffffffffffffffffffffffffffffffffffff161480612ed55750600660003373ffffffffffffffffffffffffffffffffffffffff1673ffffffffffffffffffffffffffffffffffffffff16815260200190815260200160002060009054906101000a900460ff165b612f14576040517f08c379a0000000000000000000000000000000000000000000000000000000008152600401612f0b90613c1d565b60405180910390fd5b80806001600083815260200190815260200160002060000154148015612f5157506000600160008381526020019081526020016000206000015414155b612f90576040517f08c379a0000000000000000000000000000000000000000000000000000000008152600401612f8790613c89565b60405180910390fd5b8160016002811115612fa557612fa46134e0565b5b6001600083815260200190815260200160002060020160009054906101000a900460ff166002811115612fdb57612fda6134e0565b5b1461301b576040517f08c379a000000000000000000000000000000000000000000000000000000000815260040161301290614085565b60405180910390fd5b60006001600085815260200190815260200160002090506000613043826006016003016129a6565b67ffffffffffffffff81111561305c5761305b6135c9565b5b60405190808252806020026020018201604052801561308a5781602001602082028036833780820191505090505b5090506000806000600190505b6130a6856006016003016129a6565b811161316557600081905060006130d68760060160040160008481526020019081526020016000206004016129a6565b90508481111561310d578094506001935081866000815181106130fc576130fb614304565b5b602002602001018181525050613150565b84810361314f57838061311f90614333565b945050818660018661313191906142d0565b8151811061314257613141614304565b5b6020026020010181815250505b5b5050808061315d90614333565b915050613097565b508284600601600201908051906020019061318192919061318b565b5050505050505050565b8280548282559060005260206000209081019282156131c7579160200282015b828111156131c65782518255916020019190600101906131ab565b5b5090506131d491906131d8565b5090565b5b808211156131f15760008160009055506001016131d9565b5090565b600081519050919050565b600082825260208201905092915050565b6000819050602082019050919050565b600073ffffffffffffffffffffffffffffffffffffffff82169050919050565b600061324c82613221565b9050919050565b61325c81613241565b82525050565b600061326e8383613253565b60208301905092915050565b6000602082019050919050565b6000613292826131f5565b61329c8185613200565b93506132a783613211565b8060005b838110156132d85781516132bf8882613262565b97506132ca8361327a565b9250506001810190506132ab565b5085935050505092915050565b600060208201905081810360008301526132ff8184613287565b905092915050565b6000604051905090565b600080fd5b600080fd5b6000819050919050565b61332e8161331b565b811461333957600080fd5b50565b60008135905061334b81613325565b92915050565b6000806040838503121561336857613367613311565b5b60006133768582860161333c565b92505060206133878582860161333c565b9150509250929050565b61339a8161331b565b82525050565b600081519050919050565b600082825260208201905092915050565b60005b838110156133da5780820151818401526020810190506133bf565b60008484015250505050565b6000601f19601f8301169050919050565b6000613402826133a0565b61340c81856133ab565b935061341c8185602086016133bc565b613425816133e6565b840191505092915050565b600060a0820190506134456000830188613391565b818103602083015261345781876133f7565b9050818103604083015261346b81866133f7565b9050818103606083015261347f81856133f7565b905061348e6080830184613391565b9695505050505050565b60006020820190506134ad6000830184613391565b92915050565b6000602082840312156134c9576134c8613311565b5b60006134d78482850161333c565b91505092915050565b7f4e487b7100000000000000000000000000000000000000000000000000000000600052602160045260246000fd5b600381106135205761351f6134e0565b5b50565b60008190506135318261350f565b919050565b600061354182613523565b9050919050565b61355181613536565b82525050565b600060c08201905061356c6000830189613391565b818103602083015261357e81886133f7565b905061358d6040830187613548565b61359a6060830186613391565b6135a76080830185613391565b6135b460a0830184613391565b979650505050505050565b600080fd5b600080fd5b7f4e487b7100000000000000000000000000000000000000000000000000000000600052604160045260246000fd5b613601826133e6565b810181811067ffffffffffffffff821117156136205761361f6135c9565b5b80604052505050565b6000613633613307565b905061363f82826135f8565b919050565b600067ffffffffffffffff82111561365f5761365e6135c9565b5b613668826133e6565b9050602081019050919050565b82818337600083830152505050565b600061369761369284613644565b613629565b9050828152602081018484840111156136b3576136b26135c4565b5b6136be848285613675565b509392505050565b600082601f8301126136db576136da6135bf565b5b81356136eb848260208601613684565b91505092915050565b6000806000806080858703121561370e5761370d613311565b5b600061371c8782880161333c565b945050602085013567ffffffffffffffff81111561373d5761373c613316565b5b613749878288016136c6565b935050604085013567ffffffffffffffff81111561376a57613769613316565b5b613776878288016136c6565b925050606085013567ffffffffffffffff81111561379757613796613316565b5b6137a3878288016136c6565b91505092959194509250565b6137b881613241565b81146137c357600080fd5b50565b6000813590506137d5816137af565b92915050565b6000602082840312156137f1576137f0613311565b5b60006137ff848285016137c6565b91505092915050565b60008115159050919050565b61381d81613808565b82525050565b60006020820190506138386000830184613814565b92915050565b60008060006060848603121561385757613856613311565b5b60006138658682870161333c565b93505060206138768682870161333c565b92505060406138878682870161333c565b9150509250925092565b600060ff82169050919050565b6138a781613891565b81146138b257600080fd5b50565b6000813590506138c48161389e565b92915050565b6000806000606084860312156138e3576138e2613311565b5b60006138f18682870161333c565b93505060206139028682870161333c565b9250506040613913868287016138b5565b9150509250925092565b6000806040838503121561393457613933613311565b5b6000613942858286016137c6565b92505060206139538582860161333c565b9150509250929050565b61396681613891565b82525050565b6000604082019050613981600083018561395d565b61398e6020830184613391565b9392505050565b600081519050919050565b600082825260208201905092915050565b6000819050602082019050919050565b6139ca8161331b565b82525050565b60006139dc83836139c1565b60208301905092915050565b6000602082019050919050565b6000613a0082613995565b613a0a81856139a0565b9350613a15836139b1565b8060005b83811015613a46578151613a2d88826139d0565b9750613a38836139e8565b925050600181019050613a19565b5085935050505092915050565b60006020820190508181036000830152613a6d81846139f5565b905092915050565b60006020820190508181036000830152613a8f81846133f7565b905092915050565b600060208284031215613aad57613aac613311565b5b600082013567ffffffffffffffff811115613acb57613aca613316565b5b613ad7848285016136c6565b91505092915050565b613ae981613241565b82525050565b6000604082019050613b046000830185613391565b613b116020830184613ae0565b9392505050565b6000602082019050613b2d6000830184613ae0565b92915050565b6000606082019050613b486000830186613391565b613b556020830185613ae0565b8181036040830152613b6781846139f5565b9050949350505050565b7f4e487b7100000000000000000000000000000000000000000000000000000000600052602260045260246000fd5b60006002820490506001821680613bb857607f821691505b602082108103613bcb57613bca613b71565b5b50919050565b7f43616c6c6572206973206e6f7420616e2061646d696e00000000000000000000600082015250565b6000613c076016836133ab565b9150613c1282613bd1565b602082019050919050565b60006020820190508181036000830152613c3681613bfa565b9050919050565b7f566f74696e672073657373696f6e20646f6573206e6f74206578697374000000600082015250565b6000613c73601d836133ab565b9150613c7e82613c3d565b602082019050919050565b60006020820190508181036000830152613ca281613c66565b9050919050565b60008190508160005260206000209050919050565b60006020601f8301049050919050565b600082821b905092915050565b600060088302613d0b7fffffffffffffffffffffffffffffffffffffffffffffffffffffffffffffffff82613cce565b613d158683613cce565b95508019841693508086168417925050509392505050565b6000819050919050565b6000613d52613d4d613d488461331b565b613d2d565b61331b565b9050919050565b6000819050919050565b613d6c83613d37565b613d80613d7882613d59565b848454613cdb565b825550505050565b600090565b613d95613d88565b613da0818484613d63565b505050565b5b81811015613dc457613db9600082613d8d565b600181019050613da6565b5050565b601f821115613e0957613dda81613ca9565b613de384613cbe565b81016020851015613df2578190505b613e06613dfe85613cbe565b830182613da5565b50505b505050565b600082821c905092915050565b6000613e2c60001984600802613e0e565b1980831691505092915050565b6000613e458383613e1b565b9150826002028217905092915050565b613e5e826133a0565b67ffffffffffffffff811115613e7757613e766135c9565b5b613e818254613ba0565b613e8c828285613dc8565b600060209050601f831160018114613ebf5760008415613ead578287015190505b613eb78582613e39565b865550613f1f565b601f198416613ecd86613ca9565b60005b82811015613ef557848901518255600182019150602085019450602081019050613ed0565b86831015613f125784890151613f0e601f891682613e1b565b8355505b6001600288020188555050505b505050505050565b60008154613f3481613ba0565b613f3e81866133ab565b94506001821660008114613f595760018114613f6f57613fa2565b60ff198316865281151560200286019350613fa2565b613f7885613ca9565b60005b83811015613f9a57815481890152600182019150602081019050613f7b565b808801955050505b50505092915050565b600060a082019050613fc06000830188613391565b613fcd6020830187613391565b8181036040830152613fdf8186613f27565b90508181036060830152613ff38185613f27565b905081810360808301526140078184613f27565b90509695505050505050565b7f566f74696e672073657373696f6e207068617365206973206e6f7420766f746960008201527f6e67000000000000000000000000000000000000000000000000000000000000602082015250565b600061406f6022836133ab565b915061407a82614013565b604082019050919050565b6000602082019050818103600083015261409e81614062565b9050919050565b7f43616c6c6572206973206e6f74206120766f7465720000000000000000000000600082015250565b60006140db6015836133ab565b91506140e6826140a5565b602082019050919050565b6000602082019050818103600083015261410a816140ce565b9050919050565b7f43616c6c6572206973206e6f74206120766f746572206f66207468697320766f60008201527f74696e672073657373696f6e0000000000000000000000000000000000000000602082015250565b600061416d602c836133ab565b915061417882614111565b604082019050919050565b6000602082019050818103600083015261419c81614160565b9050919050565b7f566f7465722068617320616c726561647920766f74656420696e20746869732060008201527f766f74696e672073657373696f6e000000000000000000000000000000000000602082015250565b60006141ff602e836133ab565b915061420a826141a3565b604082019050919050565b6000602082019050818103600083015261422e816141f2565b9050919050565b7f43616e64696461746520646f6573206e6f742065786973740000000000000000600082015250565b600061426b6018836133ab565b915061427682614235565b602082019050919050565b6000602082019050818103600083015261429a8161425e565b9050919050565b7f4e487b7100000000000000000000000000000000000000000000000000000000600052601160045260246000fd5b60006142db8261331b565b91506142e68361331b565b92508282039050818111156142fe576142fd6142a1565b5b92915050565b7f4e487b7100000000000000000000000000000000000000000000000000000000600052603260045260246000fd5b600061433e8261331b565b91507fffffffffffffffffffffffffffffffffffffffffffffffffffffffffffffffff82036143705761436f6142a1565b5b600182019050919050565b60006080820190506143906000830187613391565b61439d6020830186613391565b6143aa6040830185613391565b6143b76060830184613391565b95945050505050565b7f566f74657220646f6573206e6f74206578697374000000000000000000000000600082015250565b60006143f66014836133ab565b9150614401826143c0565b602082019050919050565b60006020820190508181036000830152614425816143e9565b9050919050565b7f566f74696e67207765696768742073686f756c6420626520677265617465722060008201527f7468616e207a65726f0000000000000000000000000000000000000000000000602082015250565b60006144886029836133ab565b91506144938261442c565b604082019050919050565b600060208201905081810360008301526144b78161447b565b9050919050565b7f566f74657220616c7265616479207265676973746572656420666f722074686960008201527f7320766f74696e672073657373696f6e00000000000000000000000000000000602082015250565b600061451a6030836133ab565b9150614525826144be565b604082019050919050565b600060208201905081810360008301526145498161450d565b9050919050565b60006060820190506145656000830186613391565b6145726020830185613391565b61457f604083018461395d565b949350505050565b7f41646d696e20616c726561647920657869737473000000000000000000000000600082015250565b60006145bd6014836133ab565b91506145c882614587565b602082019050919050565b600060208201905081810360008301526145ec816145b0565b9050919050565b60006080820190506146086000830187613391565b818103602083015261461a8186613f27565b90506146296040830185613548565b6146366060830184613391565b95945050505050565b7f566f74657220616c726561647920657869737473000000000000000000000000600082015250565b60006146756014836133ab565b91506146808261463f565b602082019050919050565b600060208201905081810360008301526146a481614668565b9050919050565b7f566f74696e672073657373696f6e20697320616c726561647920636c6f736564600082015250565b60006146e16020836133ab565b91506146ec826146ab565b602082019050919050565b60006020820190508181036000830152614710816146d4565b9050919050565b600060608201905061472c6000830186613391565b6147396020830185613548565b6147466040830184613391565b949350505050565b7f4174206c65617374206f6e652063616e6469646174652073686f756c6420626560008201527f2072656769737465726564000000000000000000000000000000000000000000602082015250565b60006147aa602b836133ab565b91506147b58261474e565b604082019050919050565b600060208201905081810360008301526147d98161479d565b9050919050565b7f4174206c65617374206f6e6520766f7465722073686f756c642062652072656760008201527f6973746572656400000000000000000000000000000000000000000000000000602082015250565b600061483c6027836133ab565b9150614847826147e0565b604082019050919050565b6000602082019050818103600083015261486b8161482f565b9050919050565b7f566f74696e672073657373696f6e207068617365206973206e6f74207265676960008201527f7374726174696f6e000000000000000000000000000000000000000000000000602082015250565b60006148ce6028836133ab565b91506148d982614872565b604082019050919050565b600060208201905081810360008301526148fd816148c1565b905091905056fea2646970667358221220cdffb32e5a8b2dd17497d8f00f741beec79d39e9e64763bf0335c34e2928e1be64736f6c63430008120033",
  "linkReferences": {},
  "deployedLinkReferences": {}
}